:020000040800F2
:10000000B00F0020D5010008B11200080308000855
:10001000AD1200083906000879160008000000003B
:1000200000000000000000000000000001150008B2
:100030003D06000800000000B31200081516000875
:10004000EF010008EF010008EF010008EF010008D0
:10005000EF010008EF010008EF010008EF010008C0
:10006000EF010008EF010008EF010008EF010008B0
:10007000EF010008EF010008EF010008EF010008A0
:10008000EF010008EF010008EF010008EF01000890
:10009000EF010008EF010008EF010008EF01000880
:1000A000EF010008EF010008EF010008EF01000870
:1000B000EF010008EF010008EF010008EF01000860
:1000C000EF010008EF010008EF010008EF01000850
:1000D000EF010008EF010008EF010008EF01000840
:1000E000EF010008EF010008EF010008EF01000830
:1000F000EF010008EF010008EF010008EF01000820
:10010000EF010008EF010008EF010008EF0100080F
:10011000EF010008EF010008EF010008EF010008FF
:10012000EF010008EF010008EF010008EF010008EF
:1001300000F002F800F03FF80AA090E8000C8244BA
:100140008344AAF10107DA4501D100F034F8AFF297
:10015000090EBAE80F0013F0010F18BFFB1A43F0A5
:100160000103184798830000B8830000103A24BFA9
:1001700078C878C1FAD8520724BF30C830C144BF0C
:1001800004680C607047000000230024002500264E
:10019000103A28BF78C1FBD8520728BF30C148BFEA
:1001A0000B607047642900F07380002070471FB512
:1001B0001FBD10B510BD00F011FA1146FFF7F7FF93
:1001C00001F0EAFB00F02FFA03B4FFF7F2FF03BCE3
:1001D00001F05BFA0948804709480047FEE7FEE75F
:1001E000FEE7FEE7FEE7FEE7FEE7FEE7FEE7FEE7E7
:1001F00004480549054A064B7047000019160008D7
:1002000031010008B0090020B00F0020B00B002021
:10021000B00B0020704700000FB41CB5074B06AAB6
:100220007B4469460090059800F0BBF900206946C0
:1002300000F0CAF91CBC5DF814FB0000A503000027
:1002400070B5044685690068C10601D5302600E016
:100250002026C00707D070BDD4E901213046904761
:10026000206A401C20626D1EF6D570BD70B5044634
:1002700085690078C00707D170BDD4E9012120202D
:100280009047206A401C20626D1EF6D570BD0000AC
:100290002DE9F0410646002410687529314616A55F
:1002A00010D0AFF30080002802DA404213A507E027
:1002B00031688A0701D512A502E0490704D511A5C6
:1002C000012401E0AFF3008000210A2206F1240797
:1002D00009E0B0FBF2FCB0FBF2F302FB1C00303093
:1002E00078541846491C0028F3D123462A46304644
:1002F000BDE8F04100F0F7B8000000002D0000005C
:100300002B000000200000002DE9F05F8946044624
:100310004FF0000ADFF874B1FB44C0F820A020467B
:10032000E1688847002874D0252806D0D4E9012147
:100330009047206A401C2062F1E700265F46204675
:10034000E16888472028054607DB312D05D278195A
:1003500010F8200C08B10643F1E7B00701D526F0EC
:100360000406C4F81CA00027C4F818A02A2D09D040
:10037000284601F083F938B304EB8708303DC8F80C
:10038000185019E059F8041B204604EB87029161CC
:10039000E1688847012F054618D1E069002820DA76
:1003A00026F020061DE0D8F8180000EB800005EBD1
:1003B00040003038C8F818002046E16888470546F4
:1003C00001F05CF90028EED1012F0AD02E2D08D1C2
:1003D0002046E16888477F1C0546022F46F020062C
:1003E000C4DBA069002803DA404246F00106A061A0
:1003F000F00701D026F010066C2D0BD0682D09D027
:100400004C2D39D06A2D35D0742D35D07A2D33D07E
:1004100016E038E0E1682F4620468847B842054696
:1004200009D16C2F26D04FF48060E1680643204646
:100430008847054604E06C2F1AD04FF480700643BD
:100440000DB3A5F14100192802D8203546F4006605
:100450004A462946204626604E46FFF7A3FE80B155
:1004600001280BD0F61D26F0070000F1080956E719
:100470004020E4E78020D8E70020D6E706F1040911
:100480004DE7284652E7206ABDE8F09FCC81000086
:100490004FF0000200B5134694469646203922BF1D
:1004A000A0E80C50A0E80C50B1F12001BFF4F7AF68
:1004B000090728BFA0E80C5048BF0CC05DF804EB4A
:1004C000890028BF40F8042B08BF704748BF20F8B8
:1004D000022B11F0804F18BF00F8012B70477047B6
:1004E0007047704770472DE9F0470D469946924690
:1004F000044600F124080168880604D5E06921F06B
:100500001001216000E00120A84201DD471B00E04E
:100510000027A1697A1902EB0900081AA061207866
:10052000C00602D42046FFF78BFE002608E0D4E97F
:1005300001211AF806009047206A401C761C2062B0
:100540004E45F4DB2078C0060AD52046FFF778FE3A
:1005500006E0D4E9012130209047206A401C206247
:10056000381EA7F10107F4DC07E0D4E9012118F8EF
:1005700005009047206A401C2062281EA5F1010555
:10058000F3DC2046FFF772FE2078000602D5022039
:10059000BDE8F0870120FBE701694A1C0261087889
:1005A000704700B58FB0CDE90131002105910549B3
:1005B0007944CDE9031011466846FFF7A5FE0FB058
:1005C00000BD0000E5FFFFFF0A6802F8010B0A60AA
:1005D0007047000000487047500900207546FFF73B
:1005E000F9FFAE4605006946534620F007008546F0
:1005F00018B020B5FFF7FCFDBDE820404FF0000625
:100600004FF000074FF000084FF0000B21F00701FA
:10061000AC46ACE8C009ACE8C009ACE8C009ACE83D
:10062000C0098D46704710B50446AFF300802046E0
:10063000BDE81040FFF7C8BD00BFFEE770472DE9D9
:10064000F041024600250026002000230024002758
:1006500091F803C00CF00F0591F803C00CF0100CDA
:10066000BCF1000F03D091F802C04CEA050591F8E7
:1006700000C0BCF1000F31D0146800202BE04FF017
:10068000010C0CFA00F3B1F800C00CEA03069E421C
:1006900020D183004FF00F0C0CFA03F7BC4305FA8E
:1006A00003FC4CEA040491F803C0BCF1280F06D106
:1006B0004FF0010C0CFA00FCC2F814C00AE091F8EB
:1006C00003C0BCF1480F05D14FF0010C0CFA00FC3F
:1006D000C2F810C0401C0828D1D31460B1F800C083
:1006E000BCF1FF0F34DD546800202EE000F1080C4F
:1006F0004FF0010808FA0CF3B1F800C00CEA030649
:100700009E4221D183004FF00F0C0CFA03F7BC433B
:1007100005FA03FC4CEA040491F803C0BCF1280F6D
:1007200005D100F1080C08FA0CF8C2F8148091F811
:1007300003C0BCF1480F07D100F1080C4FF00108CD
:1007400008FA0CF8C2F81080401C0828CED3546078
:10075000BDE8F081F0B50A46002300240021002501
:1007600000F00046B6F1004F02D11D4EF16901E0E4
:100770001B4E7168C0F3034583B200F44016B6F512
:10078000401F08D121F07061154E766826F0706622
:10079000134F7E6012E000F48016B6F5801F06D17C
:1007A000032606FA05F4A14341F0706106E0460D08
:1007B000360103FA06F6B14341F0706122B1460DED
:1007C000360103FA06F6314300F00046B6F1004F59
:1007D00002D1034EF16101E0014E7160F0BD0000F5
:1007E000000001400246002093680B400BB101203D
:1007F00000E0002070474161704701617047C160AF
:10080000704700BFFEE7000008B50121042000F09A
:1008100051FD0F20ADF8000003208DF802001020DC
:100820008DF8030069460B48FFF709FF0F210948BF
:10083000FFF7E3FFF020ADF8000048208DF803003B
:1008400069460448FFF7FBFEF0210248FFF7D5FF99
:1008500008BD00000008014010B50446FE21D5483F
:10086000FFF7CDFF1021D348FFF7BCFF78B120215F
:10087000D048FFF7B7FF50B14021CE48FFF7B2FF95
:1008800028B18021CB48FFF7ADFF002850D10A20C6
:1008900000F0F2FF1021C748FFF7A4FF58B901206C
:1008A000C5490870207000BF1021C248FFF79AFFA9
:1008B0000028F9D03CE02021BE48FFF793FF60B943
:1008C0000120BD4908700220207000BF2021B948D6
:1008D000FFF788FF0028F9D02AE04021B548FFF74C
:1008E00081FF60B90120B44908700320207000BF67
:1008F0004021B048FFF776FF0028F9D018E08021AA
:10090000AC48FFF76FFF60B90120AB4908700420C5
:10091000207000BF8021A748FFF764FF0028F9D0AE
:1009200006E00020A4490870FF21A248FFF767FFF6
:10093000FD21A048FFF763FF10219E48FFF752FFFB
:1009400078B120219B48FFF74DFF50B140219948D5
:10095000FFF748FF28B180219648FFF743FF0028A2
:1009600051D10A2000F088FF10219248FFF73AFF8A
:1009700060B90120904908700520207000BF102147
:100980008C48FFF72FFF0028F9D03CE02021894850
:10099000FFF728FF60B90120874908700620207002
:1009A00000BF20218348FFF71DFF0028F9D02AE06F
:1009B00040218048FFF716FF60B901207E4908708A
:1009C0000720207000BF40217A48FFF70BFF002866
:1009D000F9D018E080217748FFF704FF60B90120C3
:1009E000754908700820207000BF80217148FFF70A
:1009F000F9FE0028F9D006E000206F490870FF21B9
:100A00006C48FFF7FCFEFB216A48FFF7F8FE102157
:100A10006848FFF7E7FE78B120216648FFF7E2FE5D
:100A200050B140216348FFF7DDFE28B180216148C5
:100A3000FFF7D8FE002851D10A2000F01DFF102139
:100A40005C48FFF7CFFE60B901205B4908700920C0
:100A5000207000BF10215748FFF7C4FE0028F9D0CE
:100A60003CE020215348FFF7BDFE60B90120524908
:100A700008700A20207000BF20214E48FFF7B2FE08
:100A80000028F9D02AE040214A48FFF7ABFE60B9C0
:100A90000120494908700B20207000BF40214548C3
:100AA000FFF7A0FE0028F9D018E080214148FFF7A9
:100AB00099FE60B90120404908700C20207000BFE9
:100AC00080213C48FFF78EFE0028F9D006E0002088
:100AD00039490870FF213748FFF791FEF721354863
:100AE000FFF78DFE10213348FFF77CFE70B1202107
:100AF0003048FFF777FE48B140212E48FFF772FEDD
:100B000020B180212B48FFF76DFE28BB0A2000F0A2
:100B1000B3FE10212748FFF765FE60B90120264982
:100B200008700D20207000BF10212248FFF75AFEE8
:100B30000028F9D03CE020211E48FFF753FE60B9A1
:100B400001201D4908700E20207000BF2021194887
:100B5000FFF748FE0028F9D02AE040211548FFF7AA
:100B600041FE60B90120144908700F20207000BFB9
:100B700040211048FFF736FE0028F9D018E0802108
:100B80000C48FFF72FFE60B901200B4908701020B8
:100B9000207000BF80210748FFF724FE0028F9D00D
:100BA00006E0002004490870FF210248FFF727FEF5
:100BB00010BD0000000801402800002010B52A48A0
:100BC0008089401E83B228484089401E82B200219D
:100BD000084600F097F9254800884FF6BF71084095
:100BE000224908800846008840F4006008800846D2
:100BF000008840F04000088040201D490860002423
:100C00000BE0194880881949888100BF174800897E
:100C100000F002000028F9D0641C134840891249F2
:100C200089894843A042ECD800BF1048008900F0F1
:100C300080000028F9D140200D49091F08600B48A9
:100C400000884FF6BF7108400849088008460088B0
:100C50004FF2FF710840054908800846008840F0BF
:100C60004000088010BD0000400900200030014015
:100C7000140C014008B50DE00021009104E0BDF81E
:100C80000010491C89B20091BDF8001041F2883271
:100C90009142F4DB011EA0F10100EDD108BD00007E
:100CA0002DE9F05F0746884614460025A946002630
:100CB000AA46A4F12000C4B240202D49086000BF1C
:100CC00034E02C48006800682A490968098904FB57
:100CD000015110F801B04FF0000921E00BF00100C4
:100CE00028B125480088254921F8160004E022484B
:100CF0008088224921F816004FEA6B0B701C86B2DF
:100D00000AF101001FFA80FA1A48006880885045ED
:100D100002D14FF0000A06E009F101001FFA80F944
:100D2000B9F1080FDADB00BF681C85B21148006812
:100D30000089A842C5DC0F480068C0884044401EB6
:100D400083B20C48006880883844401E82B2414615
:100D5000384600F0D7F8074800688088054A1268CE
:100D6000D288504381B2054800F0D8F9BDE8F09F21
:100D7000140C01402C0000204009002040010020FC
:100D80002DE9FF4106460F4614461D460B48007AE2
:100D900030B923462A460AA16846FFF73DFA05E026
:100DA00023462A4608A16846FFF736FA6A463946BE
:100DB000304600F00BF8BDE8FF810000400900203C
:100DC00025302E2A64000000252A640070B50546EF
:100DD0000E4614460AE0227831462846FFF760FFA7
:100DE000064800688088284485B2641C044840890D
:100DF000A84202DD20780028EDD170BD2C00002033
:100E00004009002008B50121082000F053FA012113
:100E1000084600F04FFA01212148FFF79BFC012111
:100E20000846FFF797FC18208DF8030003208DF883
:100E300002000820ADF8000069461A48FFF7FFFBE2
:100E40002020ADF8000069461648FFF7F8FB102097
:100E50008DF8030003208DF802004020ADF800005B
:100E600069461048FFF7EBFB8020ADF800006946AB
:100E70000C48FFF7E4FB4FF48070ADF800006946C2
:100E80000848FFF7DCFB80210648FFF7B6FC40204E
:100E900004491031086081000248FFF7ACFC08BD2E
:100EA00000023000000C014000B585B001210803AC
:100EB00000F000FA4FF44040ADF800004FF48270AB
:100EC000ADF802000020ADF80400ADF80600ADF862
:100ED00008004FF40070ADF80A000820ADF80C00CF
:100EE0000020ADF80E000720ADF810006946044858
:100EF00000F0FCF90121024800F0ECF905B000BD5A
:100F0000003001402DE9F04104460D4616461F46CB
:100F10004020184908602A2000F04AF91649897BC8
:100F2000214488B200F06AF91349897B314488B2C0
:100F300000F064F92B2000F03BF90F49C97B2944EC
:100F400088B200F05BF90C49C97B394488B200F0E3
:100F500055F92C2000F02CF900BF0848008900F05A
:100F600080000028F9D140200249091F0860BDE82F
:100F7000F0810000140C01404009002000300140C5
:100F800001490860704700002C00002030B50023A4
:100F90000021002200F47804230A00F47C44610953
:100FA000C0F3C40243EA01041443014D6C6030BD38
:100FB0004009002030B500230021002200F478040D
:100FC000230A00F47C446109C0F3C40243EA01042B
:100FD0001443014D2C6030BD4009002010B504467B
:100FE0002D48447240202D49086084B9362000F015
:100FF000DFF8702000F018F91420274988730020CA
:10100000C8734FF48C704881F020888137E0022C3F
:1010100010D1362000F0CCF8002000F005F90020B7
:101020001D4988731420C873F02048814FF48C70D8
:10103000888124E0012C10D1362000F0B9F8A020DE
:1010400000F0F2F81420144988730020C8734FF49C
:101050008C704881F020888111E0032C0FD136205C
:1010600000F0A6F8C02000F0DFF800200A498873DD
:101070001420C873F02048814FF48C70888100BF21
:101080000748008900F080000028F9D1402003497A
:10109000091F086010BD000040090020140C014029
:1010A00000300140134908608188142912D004DC03
:1010B0000C2907D0102919D108E018290ED02029B1
:1010C00014D10FE00C490D4A116010E00C490B4A95
:1010D00011600CE00B49094A116008E00A49074A0F
:1010E000116004E00949054A116000E000BF00BF3B
:1010F0007047000030000020A00000202C000020DD
:1011000094000020880000207C0000207000002057
:1011100001490872704700004009002010B50246DE
:10112000214B1B884FF6BF7423401F4C238023465E
:101130001B8843F40063238023461B8843F040034D
:1011400023804023194C236000200BE032F810303C
:10115000154CA38100BF144B1B8903F00203002B25
:10116000F9D0401C8842F1D300BF0F4B1B8903F01C
:101170008003002BF9D140230C4C241F23600A4B21
:101180001B884FF6BF742340074C238023461B88DF
:101190004FF2FF742340044C238023461B8843F006
:1011A0004003238010BD000000300140140C0140BA
:1011B00010B5044600BF0F48008900F080000028E9
:1011C000F9D180210C48FFF716FB0A48848100BF43
:1011D0000848008900F002000028F9D000BF054847
:1011E000008900F080000028F9D180210248FFF733
:1011F00004FB10BD00300140000C01400112094AFF
:10120000918100BF0749098901F002010029F9D045
:101210000449888100BF0349098901F002010029BE
:10122000F9D07047003001400449888100BF03496C
:10123000098901F002010029F9D07047003001400E
:1012400008B50121102000F035F810208DF80300BA
:101250004002ADF8000003208DF802006946034803
:10126000FFF7EDF901200249086008BD00100140B8
:10127000B40122420B48007810B1012810D108E0D7
:1012800000200949086007480078401C054908709B
:1012900006E001200449086000200249087000BFF0
:1012A00000BF704729000020B401224200BFFEE7C2
:1012B0007047704729B1064A92690243044B9A610C
:1012C00004E0034A92698243014B9A61704700002F
:1012D0000010024021B1028842F04002028004E086
:1012E00002884FF6BF731A400280704710B5002283
:1012F000028802F441520B884C8823438C88234394
:10130000CC8823430C8923434C8923438C89234372
:10131000CC8923431A430280838B4FF2FF7423400E
:1013200083830B8A038210BD10B5FFF76BFDFFF7B7
:10133000BBFD0520FFF79EFC40206E49086036206B
:10134000FFF736FF0020FFF76FFF3A20FFF730FF6F
:101350000520FFF769FFB220FFF72AFF0C20FFF7F7
:1013600063FF0C20FFF760FF0020FFF75DFF3320D5
:10137000FFF75AFF3320FFF757FFB720FFF718FF9B
:101380003520FFF751FFBB20FFF712FF1920FFF7B1
:101390004BFFC020FFF70CFF2C20FFF745FFC220BA
:1013A000FFF706FF0120FFF73FFFC320FFF700FF15
:1013B0001220FFF739FFC420FFF7FAFE2020FFF7C5
:1013C00033FFC620FFF7F4FE0F20FFF72DFFD020DC
:1013D000FFF7EEFEA420FFF727FFA120FFF724FF71
:1013E000E020FFF7E5FED020FFF71EFF0420FFF707
:1013F0001BFF0D20FFF718FF1120FFF715FF13202B
:10140000FFF712FF2B20FFF70FFF3F20FFF70CFF26
:101410005420FFF709FF4C20FFF706FF1820FFF7C5
:1014200003FF0D20FFF700FF0B20FFF7FDFE1F203D
:10143000FFF7FAFE2320FFF7F7FEE120FFF7B8FEE3
:10144000D020FFF7F1FE0420FFF7EEFE0C20FFF79F
:10145000EBFE1120FFF7E8FE1320FFF7E5FE2C203E
:10146000FFF7E2FE3F20FFF7DFFE4420FFF7DCFE40
:101470005120FFF7D9FE2F20FFF7D6FE1F20FFF7E0
:10148000D3FE1F20FFF7D0FE2020FFF7CDFE232044
:10149000FFF7CAFE2120FFF78BFE1120FFF788FE21
:1014A0007820FFF7E7FB2920FFF782FE00BF1248F4
:1014B000008900F080000028F9D140200D49091F63
:1014C00008600220FFF78AFD0020FFF75FFD6FF044
:1014D0007F40FFF76FFDFFF771FB0848FFF750FDF6
:1014E0000020FFF715FE4FF4807102481438FFF713
:1014F00084F910BD140C0140003001407C00002034
:10150000704710B500F002F810BD00000CB50020C7
:10151000019000903348006840F480303149086001
:1015200000BF3048006800F4003000900198401C73
:101530000190009818B90198B0F5A06FF1D1294831
:10154000006800F4003010B10120009001E000209C
:1015500000900098012843D12348006840F0100013
:10156000214908600846006820F00300086008462A
:10157000006840F0020008601A4840681949486055
:101580000846406848600846406840F4806048600B
:101590000846406820F47C1048600846406840F4E3
:1015A000E81048600846006840F08070086000BF9E
:1015B0000C48006800F000700028F9D00948406825
:1015C00020F00300074948600846406840F00200E8
:1015D000486000BF0348406800F00C000828F9D1BB
:1015E0000CBD00000010024000200240042808D179
:1015F0004FF0E021096941F004014FF0E022116150
:1016000007E04FF0E021096921F004014FF0E022EA
:10161000116170477047000010B51348006840F032
:1016200001001149086008464068104908400E4909
:101630004860084600680E4908400B4908600846A3
:10164000006820F4802008600846406820F4FE000E
:1016500048604FF41F008860FFF753FF4FF00060B1
:101660000449086010BD0000001002400000FFF8AF
:10167000FFFFF6FE08ED00E000BFFEE730380A2865
:1016800001D2012070470020704700BF704730B57D
:1016900003460C46002108E053F8210054F821507D
:1016A000A84201D0002030BD491C9142F4DB01204A
:1016B000F9E7000010B510203A490870FFF77EFAEC
:1016C00039A214211920FFF781FB3BA22D211920FB
:1016D000FFF77CFB3BA2C8210A20FFF777FB022023
:1016E00000F0F0F800202F4908703B4908700C22E8
:1016F0003A493B48FFF7CBFF00282DD0FFF75EFAB1
:1017000038A214213220FFF761FB2EA2C8210A2043
:10171000FFF75CFB032000F0D5F8FFF74FFA0C222F
:1017200034492E48FFF7B3FF28B133A22D210C20F6
:10173000FFF74CFB1AE035A22D212120FFF746FBD5
:10174000002006E02B4951F82010254A42F82010CD
:10175000401C0C28F6DB09E0FFF730FA2FA2282105
:101760001620FFF733FB00203149086030211B4869
:10177000FEF78EFE30211F48FEF78AFE0C20094935
:1017800008700120144908704FF47A7000F074F862
:1017900040F2EE2000F070F8012025490860FFF7C4
:1017A0000DFA10BD14000020456E74657220707231
:1017B0006576696F7573000070617373776F72641B
:1017C000000000005072657373202320746F206343
:1017D0006F6E6669726D000028000020E000002036
:1017E000B00000206E65772070617373776F72644C
:1017F00000000000100100204475706C6963617482
:10180000652070617373776F726400007375636332
:1018100065737366756C6C792121210057726F6E48
:10182000672070617373776F72642121210000005B
:10183000B401224210B56FF00400FFF7D7FE0A484A
:1018400000680A49B0FBF1F00949087008460078C1
:1018500000EB4001C1EBC0104FF6FF7101EAC00080
:101860000449088010BD00000000002000127A002A
:10187000AC000020AE0000200146114A12884A4305
:101880004FF0E0235A6100229A611A46126942F031
:1018900001021A6100BF4FF0E022106900F001025E
:1018A0001AB100F48032002AF5D04FF0E02212691C
:1018B00022F001024FF0E0231A6100229A61704782
:1018C000AE00002070B5054600244EE02B48FEF720
:1018D000C3FF2B480078012800D100E000202749F1
:1018E00009780F2901D0012100E000210840234997
:1018F00009780C2901D0012100E0002108401F498E
:101900000978102901D0012100E00021084030B3FE
:10191000012D05D1194800781A4941F824000EE03C
:10192000022D05D115480078174941F8240006E03A
:10193000032D04D111480078144941F8240014A261
:10194000502114480078FFF741FA601CC4B21148D6
:1019500000780F300F4908700020094908700123F2
:101960002246FA211420FFF70BFA044800780F28CA
:10197000ACD11B200749087070BD00001400002086
:1019800028000020B0000020E0000020100100200E
:101990002A00000015000020FFF74CFFFFF750FC65
:1019A000FEF732FFFFF7C0FC0220FFF717FB594894
:1019B000FFF778FB0020FFF7FDFA5748FFF7E6FA3C
:1019C000FFF7FCF855A214211620FFF7FFF958A2E3
:1019D000C8210A20FFF7FAF99AE018E00120FFF782
:1019E00071FF58A296211420FFF7F0F90C205649F8
:1019F000087001205549087040F2EE20FFF73CFFC7
:101A0000FFF7DCF852480068401E51490860504812
:101A100000680028E2D14C48FEF71EFF4B480078D2
:101A2000012800D100E00020474909780C2901D1A4
:101A3000012100E00021084000281BD045A22821F8
:101A40000F20FFF7C3F948A246210F20FFF7BEF988
:101A500037A2C8210A20FFF7B9F948A28C219620A5
:101A6000FFF7B4F947A2AA219620FFF7AFF90120AA
:101A70004649086035480078012800D100E0002080
:101A800031490978102901D1012100E000210840E5
:101A9000D8B13FA228210F20FFF798F941A2462193
:101AA0000F20FFF793F922A2C8210A20FFF78EF931
:101AB00032A28C219620FFF789F932A2AA21962022
:101AC000FFF784F902203149086030480068012896
:101AD00000D100E000201C4909780F2901D1012123
:101AE00000E00021084008B100F066F827480068CF
:101AF000022801D1012000E00020134909780F29B4
:101B000001D1012100E00021084008B1FFF7D2FD1A
:101B100063E7000058000020FFFF8000707574200C
:101B20006E65772070617373776F726400000000D8
:101B30005072657373202320746F20636F6E666923
:101B4000726D00004F4B00001400002028000020A0
:101B5000180000202D3E20456E7465722070617360
:101B600073776F72640000002020204368616E6705
:101B7000652070617373776F72640000433A75700B
:101B800000000000443A646F776E000020000020DF
:101B9000202020456E7465722070617373776F72B8
:101BA000640000002D3E204368616E67652070610F
:101BB0007373776F7264000010B503202E490860BC
:101BC0000C202E490870FEF7F9FF15E02CA2142115
:101BD0002320FFF7FBF80220FFF774FEFEF7EEFF6D
:101BE0000020264908702A4908700C2229492A48F1
:101BF000FFF74DFD00B107E01F4801680068401E77
:101C00001D4A10600029E1D100BF1B480068401C3C
:101C100050B122A23C215A20FFF7D8F821A2BE21C0
:101C20001920FFF7D3F807E023A23C215020FFF74B
:101C3000CDF800202249086009E01048FEF70CFEAC
:101C40000E4800780F2802D1FFF714FB03E00B4881
:101C500000780028F1D000BF30210E48FEF718FCB4
:101C60000C200649087001200949087014490860D1
:101C7000FEF7A4FF10BD00001C000020140000208F
:101C8000456E7465722070617373776F72640000C3
:101C900028000020E0000020B0000020547275658C
:101CA000000000005072657373202320746F20635E
:101CB0006C6F7365000000005761726E2121210076
:101CC000B4012242000000000000FC070400FC03F5
:101CD0001402A40166009E0700000000B7B40000D3
:101CE00000000000000000000000000000000000F4
:101CF00000000000000000006000FE07FA0316016B
:101D0000FF0FFC030402FC0300000000BFCD000035
:101D100000000000000000000000000000000000C3
:101D2000000000000000000000017F0184013F016D
:101D30004C01F6070501040100000000BFC60000C9
:101D40000000000000000000000000000000000093
:101D5000000000000000000000008400FF07840075
:101D6000FC032703C400370700000000BCBC0000D0
:101D70000000000000000000000000000000000063
:101D80000000000000000000000000000000000053
:101D90000000000000000000000000000000000043
:101DA0000000000000000000000000000000000033
:101DB0000000000000000000000000000000000023
:101DC0000000000000000000000000000000000013
:101DD0000000000000000000000000000000000003
:101DE00000000000000000000000000000000000F3
:101DF00000000000000000000000000000000000E3
:101E000000000000000000000000000000000000D2
:101E100000000000000000000000000000000000C2
:101E200000000000000000000000000000000000B2
:101E300000000000000000000000000000000000A2
:101E40000000000000000000000000000000000092
:101E50000000000000000000000000000000000082
:101E60000000000000000000000000000000000072
:101E70000000000000000000000000000000000062
:101E80000000000000000000000000000000000052
:101E90000000000000000000000000000000000042
:101EA000000000000000000000000000FC1F040013
:101EB000FC0F140824046402860162071D38000028
:101EC00000000000B7B400000000000000000000A7
:101ED0000000000000000000000000000000000002
:101EE000000000000000000000000000C000FE1F15
:101EF000F2071802E6011F3EF8070804F807000081
:101F000000000000BFCD0000000000000000000045
:101F100000000000000000000000000000000000C1
:101F20000000000000000000000000000008BE09E2
:101F3000080BFE089809EC3F0A080808080800008A
:101F400000000000BFC6000000000000000000000C
:101F50000000000000000000000000000000000081
:101F60000000000000000000000000000402FF3F2D
:101F70000402E41F4C108708040784077738000028
:101F800000000000BCBC00000000000000000000D9
:101F90000000000000000000000000000000000041
:101FA0000000000000000000000000000000000031
:101FB0000000000000000000000000000000000021
:101FC0000000000000000000000000000000000011
:101FD0000000000000000000000000000000000001
:101FE00000000000000000000000000000000000F1
:101FF00000000000000000000000000000000000E1
:1020000000000000000000000000000000000000D0
:1020100000000000000000000000000000000000C0
:1020200000000000000000000000000000000000B0
:1020300000000000000000000000000000000000A0
:102040000000000000000000000000000000000090
:102050000000000000000000000000000000000080
:102060000000000000000000000000000000000070
:102070000000000000000000000000000000000060
:102080000000000000000000000000000000000050
:102090000000000000000000000000000000000040
:1020A0000000000000000000000000000000000030
:1020B0000000000000000000000000000000000020
:1020C0000000000000000000000000000000000010
:1020D0000000000000000000000000000000000000
:1020E00000000000000000000000000000000000F0
:1020F00000000000000000000000000000000000E0
:1021000000000000000000000000000000000000CF
:1021100000000000000000000000000000000000BF
:1021200000000000000000000000000000000000AF
:1021300000000000E003F81F00080000080000F89D
:10214000FF0148800188C000086100083600041CB7
:102150000084E3007200070000000000000000009F
:10216000B7B4000000000000000000000000000004
:10217000000000000000000000000000000000005F
:10218000000000000000000000000000000000004F
:10219000000000000000000000000000000000003F
:1021A000000000000000000000000000010000032B
:1021B00000FEFF01620001F87F007E3000800F000A
:1021C0007FF003F87F00084000F87F00084000001F
:1021D0000000000000000000BFCD00000000000073
:1021E00000000000000000000000000000000000EF
:1021F00000000000000000000000000000000000DF
:1022000000000000000000000000000000000000CE
:1022100000000000000000000000000000000000BE
:10222000000000E040001E4600104C00105800FE68
:102230004300104600784C00DC400014F003924F3D
:1022400000104000104000000000000000000000EE
:10225000BFC60000000000000000000000000000F9
:10226000000000000000000000000000000000006E
:10227000000000000000000000000000000000005E
:10228000000000000000000000000000000000004E
:10229000000000000000000000000008100008100E
:1022A00000FFFF03081000081000E8FF011C0201F6
:1022B0000B8600086C00081800086F00EF80030010
:1022C0000000000000000000BCBC00000000000096
:1022D00000000000000000000000000000000000FE
:1022E00000000000000000000000000000000000EE
:1022F00000000000000000000000000000000000DE
:1023000000000000000000000000000000000000CD
:10231000000000FCFF0300000000000000000000BF
:102320000000F8FF010000000000000000000000B5
:1023300000000000FEFF0700000000000000000099
:10234000C8FD2000000000000000000000000000A8
:10235000000000000000000000000000000000007D
:10236000000000000000000000000000000000006D
:10237000000000000000000000000000000000005D
:102380000000000000000000000000102000FEFF20
:1023900001102000F03F00102000F03F001020004E
:1023A000FFFF03102100FCFF00030103FEFF0100FB
:1023B0000000000000000000BBF920000000000049
:1023C000000000000000000000000000000000000D
:1023D00000000000000000000000000000000000FD
:1023E00000000000000000000000000000000000ED
:1023F00000000000000000000000000000000000DD
:10240000000000400000F01F00181800040C00FF3E
:10241000FF00048200048200FCFF0004800004002E
:1024200000040002F8FF01000000000000000000AE
:10243000C9AB200000000000000000000000000008
:10244000000000000000000000000000000000008C
:10245000000000000000000000000000000000007C
:10246000000000000000000000000000000000006C
:10247000000000000000000000000000000000005C
:10248000000000000000000000000000000000004C
:10249000000000000000000000000000000000003C
:1024A000000000000000000000000000000000002C
:1024B000000000000000000000000000000000001C
:1024C000000000000000000000000000000000000C
:1024D00000000000000000000000000000000000FC
:1024E00000000000000000000000000000000000EC
:1024F00000000000000000000000000000000000DC
:1025000000000000000000000000000000000000CB
:1025100000000000000000000000000000000000BB
:1025200000000000000000000000000000000000AB
:10253000000000000000000000000000000000009B
:10254000000000000000000000000000000000008B
:10255000000000000000000000000000000000007B
:10256000000000000000000000000000000000006B
:10257000000000000000000000000000000000005B
:10258000000000000000000000000000000000004B
:10259000000000000000000000000000000000003B
:1025A000000000000000000000000000000000002B
:1025B000000000000000000000000000000000001B
:1025C000000000000000000000000000000000000B
:1025D00000000000000000000000000000000000FB
:1025E00000007FF8FF00180000180000180000F835
:1025F000FF3F98013098031818030818060C180CB0
:10260000060818030CF0000CF001061C0786033CBA
:102610007300E0000000000000000000B7B40000FC
:1026200000000000000000000000000000000000AA
:10263000000000000000000000000000000000009A
:10264000000000000000000000000000000000008A
:10265000000000000000000000000000000000007A
:10266000000000000000000000000000000000006A
:10267000001000007000FCFFFF0C07C08C03C0C0FE
:10268000FF1FF0030E1C8E03007800C0C7073F0039
:10269000F8E0FF1F600018600018600018E0FF1FDE
:1026A000600018000000000000000000BFCD000026
:1026B000000000000000000000000000000000001A
:1026C000000000000000000000000000000000000A
:1026D00000000000000000000000000000000000FA
:1026E00000000000000000000000000000000000EA
:1026F00000000000000000000000000000000000DA
:102700000000188007187E3018606018608019601B
:10271000001BFE0718601818F0711870C3186806BF
:10272000186C00FF66FE1862001860001860001840
:10273000600018000000000000000000BFC600009C
:102740000000000000000000000000000000000089
:102750000000000000000000000000000000000079
:102760000000000000000000000000000000000069
:102770000000000000000000000000000000000059
:102780000000000000000000000000000000000049
:1027900030000330000330000330FCFFFF01033042
:1027A000000330000330FE7FF019603F38303030D6
:1027B0001830600C30C00630800330E00E303878BE
:1027C0001F07C0000000000000000000BCBC0000AB
:1027D00000000000000000000000000000000000F9
:1027E00000000000000000000000000000000000E9
:1027F00000000000000000000000000000000000D9
:1028000000000000000000000000000000000000C8
:1028100000000000000000000000000000000000B8
:102820000000C0F8FFC018C0CC18C0CCF8FFCC180E
:10283000C0CC180CCC180CCCD8FFCCD8CCCCD8CC75
:10284000CCD8CCCCCCCCC0CCCCC004FCC0060C7E4C
:10285000000000000000000000000000CBA22000EB
:102860000000000000000000000000000000000068
:102870000000000000000000000000000000000058
:102880000000000000000000000000000000000048
:102890000000000000000000000000000000000038
:1028A0000000000000000000000000000000000028
:1028B000000000F8FF7F180060180060F8FF7F1824
:1028C0000666180C06180803D8FF7F180C06180CAB
:1028D00006F8FFFF0C0C060C0C06040606060306A1
:1028E000030106000000000000000000C6C1200037
:1028F00000000000000000000000000000000000D8
:1029000000000000000000000000000000000000C7
:1029100000000000000000000000000000000000B7
:1029200000000000000000000000000000000000A7
:102930000000000000000000000000000000000097
:102940000200C084FFCC9CC1CC88C1CC80D9CC8390
:10295000D9CC8ED9CC98D9CC80D9CC80D9CC88D9B7
:10296000CC98CDCC0C0CCC0C36C00C63C0C6C1C00E
:1029700074807D000000000000000000B2E2200032
:102980000000000000000000000000000000000047
:102990000000000000000000000000000000000037
:1029A0000000000000000000000000000000000027
:1029B0000000000000000000000000000000000017
:1029C0000000000000000000000000000000000007
:1029D00002001B0C007318004338000380FFFF0047
:1029E00000031F000318000398FF031818021818AB
:1029F00006981806D8188678188C38F88D9C0F9889
:102A00000800F0000000000000000000CAD4200010
:102A100000000000000000000000000000000000B6
:102A200000000000000000000000000000000000A6
:102A30000000000000000000000000000000000096
:102A40000000000000000000000000000000000086
:102A50000000000000000000000000000000000076
:102A6000008301FEFFFF008301F0FF3F300030F0E4
:102A7000FF3F300030F0FF3F300C30000600FEFF1B
:102A8000FFC0300CF8FF7F67309860301860301F4F
:102A9000003000000000000000000000C4BB200067
:102AA0000000000000000000000000000000000026
:102AB0000000000000000000000000000000000016
:102AC0000000000000000000000000000000000006
:102AD00000000000000000000000000000000000F6
:102AE00000000000000000000000000000000000E6
:102AF00000630080C100C080016000033000061840
:102B0000001C0E00700200C0F8FF0F00030E00034F
:102B10000E800106800106C0000660000738FC0335
:102B20000E0000000000000000000000B7D62000EA
:102B30000000000000000000000000000000000095
:102B40000000000000000000000000000000000085
:102B50000000000000000000000000000000000075
:102B60000000000000000000000000000000000065
:102B70000000000000000000000000000018600CD1
:102B8000306018306010FEE1FF00600082EDC1C4CB
:102B90006C636C6C36FE65FF30661830661830600A
:102BA00018FEB1FF3030183818181C1C180E0E18FB
:102BB000020218000000000000000000B1E6200042
:102BC0000000000000000000000000000000000005
:102BD00000000000000000000000000000000000F5
:102BE00000000000000000000000000000000000E5
:102BF00000000000000000000000000000000000D5
:102C000000000000000000000000000000000000C4
:102C1000003800007000FFFFFF003800064E608C97
:102C20006338D03F08001C00202604F8C31CCFFFE7
:102C3000F1023041003000FFFFFF003000003000A3
:102C4000003000000000000000000000C2CA2000A8
:102C50000000000000000000000000000000000074
:102C60000000000000000000000000000000000064
:102C70000000000000000000000000000000000054
:102C80000000000000000000000000000000000044
:102C90000000000000000000000000000030800084
:102CA00030800130000330FEFFFE06C03086C430A5
:102CB0004018303030301860F00FC03EF87F3000E0
:102CC0000330000330000330000330000330FFFF07
:102CD0001E0000000000000000000000BFD820001F
:102CE00000000000000000000000000000000000E4
:102CF00000000000000000000000000000000000D4
:102D000000000000000000000000000000000000C3
:102D100000000000000000000000000000000000B3
:102D200000000000000000000000000000000000A3
:102D30008001609801608C0163FC3F6386016382BF
:102D40000163FFFF63800163800163FC7F638C612B
:102D5000638C61638C61608C61608C3D6080013F3D
:102D6000000000000000000000000000D6C62000A7
:102D70000000000000000000000000000000000053
:102D80000000000000000000000000000000000043
:102D90000000000000000000000000000000000033
:102DA0000000000000000000000000000000000023
:102DB0000000000000000000000000000000000013
:102DC000000000FCC77F0CC6600CC660FCC77F0C0F
:102DD000C660003006FEFFFF006E0000C701F00174
:102DE0000F1F00F8FCC77F0CC6600CC660FCC77FD5
:102DF0000CC660000000000000000000C6F72000C4
:102E000000000000000000000000000000000000C2
:102E100000000000000000000000000000000000B2
:102E200000000000000000000000000000000000A2
:102E30000000000000000000000000000000000092
:102E4000000000000000000000000000000008007A
:102E5000001800003000FEFFFF0600C00600C0E0C2
:102E6000FF0F00000700800100E000003000FFFFBE
:102E7000FF003000003000003000003000801F00F4
:102E8000000000000000000000000000D7D6200075
:102E90000000000000000000000000000000000032
:102EA0000000000000000000000000000000000022
:102EB0000000000000000000000000000000000012
:102EC0000000000000000000000000000000000002
:102ED0000000000000000000000000000020800151
:102EE00030C000F8DFFFC8600684710C02390801A9
:102EF000100060000C70000CB8FFFF3C000C3604A2
:102F00000C320C0C30180C30100C30000C30000C53
:102F100030E007000000000000000000B7FB2000C8
:102F200000000000000000000000000000000000A1
:102F30000000000000000000000000000000000091
:102F40000000000000000000000000000000000081
:102F50000000000000000000000000000000000071
:102F60000000000000000000000000000000000061
:102F7000C0300060E000F0FFFF386000F6FFFF3374
:102F80006000F0FFFF306000F0FFFF300000003015
:102F900000003000FEFFFF00FE0180310770303876
:102FA0000F30C0000000000000000000BCAF200097
:102FB0000000000000000000000000000000000011
:102FC0000000000000000000000000000000000001
:102FD00000000000000000000000000000000000F1
:102FE00000000000000000000000000000000000E1
:102FF00000000000000000000000000000000000D1
:10300000001800001800001800001800FCFF7F0CDA
:1030100018600C18600C18600C18600C1860FCFF2D
:103020007F0C18600018000018000018000018003D
:10303000001800000000000000000000D6D02000B2
:103040000000000000000000000000000000000080
:103050000000000000000000000000000000000070
:103060000000000000000000000000000000000060
:103070000000000000000000000000000000000050
:1030800000000000000000000000000000001C0024
:10309000003800006000FFFFFF60000C60000CC003
:1030A0000006C0000680010300830100C700006C19
:1030B0000000380000EE00C0830778003C0600E006
:1030C000000000000000000000000000CEC420004E
:1030D00000000000000000000000000000000000F0
:1030E00000000000000000000000000000000000E0
:1030F00000000000000000000000000000000000D0
:1031000000000000000000000000000000000000BF
:1031100000000000000000000000000000000000AF
:10312000000000F8FF3F180030180030F8FF3F188B
:103130000030180030F8FF3F18003004C62008C6E1
:103140003018C63830C61820C60800C600FEFFFF7B
:10315000000000000000000000000000CFD42000AC
:10316000000000000000000000000000000000005F
:10317000000000000000000000000000000000004F
:10318000000000000000000000000000000000003F
:10319000000000000000000000000000000000002F
:1031A000000000000000000000000000000000001F
:1031B000000000FCFF7F0000000000000000000095
:1031C0000000FFFFFF00300020300430300C3830AA
:1031D000181830300C30600630C0023080003000EB
:1031E000801F00000000000000000000CABE200098
:1031F00000000000000000000000000000000000CF
:1032000000000000000000000000000000000000BE
:1032100000000000000000000000000000000000AE
:10322000000000000000000000000000000000009E
:10323000000000000000000000000000000000008E
:10324000000000FEFFFF00300000300000300030C2
:10325000300030300030300030F07F30300030301F
:1032600000303000303000303000303000FFFFFFE1
:10327000000000000000000000000000D5FD20005C
:10328000000000000000000000000000000000003E
:10329000000000000000000000000000000000002E
:1032A000000000000000000000000000000000001E
:1032B000000000000000000000000000000000000E
:1032C00000000000000000000000000000000000FE
:1032D000000300800100C0FF076000033880010C7C
:1032E0006000F4FF3F30003030303030303030306C
:1032F0003030303030303030F83000980300070E76
:10330000E001781E00C0000000000000B8BA2000F4
:1033100000000000000000000000000000000000AD
:10332000000000000000000000000000000000009D
:10333000000000000000000000000000000000008D
:10334000000000000000000000000000000000007D
:10335000000000000000000000000000000000006D
:1033600000300000300000300000300060300630D7
:10337000300C30301C1830381830300C30600E30C3
:10338000E00630C0023080003000003000C01F0076
:10339000000000000000000000000000D0A120009C
:1033A000000000000000000000000000000000001D
:1033B000000000000000000000000000000000000D
:1033C00000000000000000000000000000000000FD
:1033D00000000000000000000000000000000000ED
:1033E00000000000000000000000000000000000DD
:1033F000C00003C60C01C48601C080FFFECF60E0A0
:10340000C060F8E360CCFE31C39831308031FF0FEB
:103410001B0C0C1B06060E3C070EE0031BE0C33121
:103420003C76E0071880000000000000CAFD200084
:10343000000000000000000000000000000000008C
:10344000000000000000000000000000000000007C
:10345000000000000000000000000000000000006C
:10346000000000000000000000000000000000005C
:10347000000000000000000000000000000000004C
:1034800030000330000330FEFF300003300003FF44
:10349000FD7F300C6030FC7F300C6030FC7F300CE6
:1034A00060B0FD7F780C6007FFFF00601C001CF01F
:1034B000800300000000000000000000CCEE2000AF
:1034C00000000000000000000000000000000000FC
:1034D00000000000000000000000000000000000EC
:1034E00000000000000000000000000000000000DC
:1034F00000000000000000000000000000000000CC
:1035000000000000000000000000000000000000BB
:10351000000800001800003800FFFFFF000E0080C8
:103520008301C0000770000CFCFF3F00C32000C3F4
:103530000080C10080C1C0E0C0C038C0C007807F2B
:10354000000000000000000000000000B3E42000C4
:10355000000000000000000000000000000000006B
:10356000000000000000000000000000000000005B
:10357000000000000000000000000000000000004B
:10358000000000000000000000000000000000003B
:10359000000000000000000000000000000000002B
:1035A000003800007000FEFFFF0600C00686C3C0A2
:1035B000011E3800700600C0000000F8FF3F001830
:1035C00000001800001800001800001800FEFFFF9F
:1035D000000000000000000000000000BFD5200037
:1035E00000000000000000000000000000000000DB
:1035F00000000000000000000000000000000000CB
:1036000000000000000000000000000000000000BA
:1036100000000000000000000000000000000000AA
:10362000000000000000000000000000000000009A
:1036300030600030300030F07F307870FF5B383021
:10364000CC0CF88007B8C10F3C7A78360EC033F83E
:103650007F31186030186030186030186030F87FA3
:10366000301860000000000000000000B8F12000E9
:10367000000000000000000000000000000000004A
:10368000000000000000000000000000000000003A
:10369000000000000000000000000000000000002A
:1036A000000000000000000000000000000000001A
:1036B000000000000000000000000000000000000A
:1036C00000000000000000000000000000000000FA
:1036D00000000000000000000000000000000000EA
:1036E00000000000000000000000000000000000DA
:1036F00000000000000000000000000000000000CA
:1037000000000000000000000000000000000000B9
:1037100000000000000000000000000000000000A9
:103720000000000000000000000000000000000099
:103730000000000000000000000000000000000089
:103740000000000000000000000000000000000079
:103750000000000000000000000000000000000069
:103760000000000000000000000000000000000059
:103770000000000000000000000000000000000049
:103780000000000000000000000000000000000039
:103790000000000000000000000000000000000029
:1037A0000000000000000000000000000000000019
:1037B0000000000000000000000000000000000009
:1037C00000000000000000000000000000000000F9
:1037D00000000000000000000000000000000000E9
:1037E00000000000000000000000000000000000D9
:1037F00000000000000000000000000000000000C9
:1038000000000000000000000000000000000000B8
:1038100000000000000000000000000000000000A8
:103820000000000000000000000000000000000098
:10383000000000000000C03FE0FFFF7FE0FF3F000E
:1038400060000000600000006000000060000000F8
:10385000E0FFFF3FE0FFFF3F600C0038601C001CF2
:103860006038000E6030000E60E0000760C0C103E9
:103870007080E3013000FF0030003C003800FF00A2
:103880001CE0E7031CFE803FCE3F00FC840300C029
:10389000000000000000000000000000B7B40000BD
:1038A0000000000000000000000000000000000018
:1038B0000000000000000000000000000000000008
:1038C00000000000000000000000000000000000F8
:1038D00000000000000000000000000000000000E8
:1038E00000000000000000000000000000000000D8
:1038F00000000000000000000000000000000000C8
:1039000000000000000000000000000000000000B7
:1039100000000000000000000000000000000000A7
:103920000000000000000000000000000000000097
:103930000080000000C0030000800300FCFFFF7F48
:10394000FCFFFF7F0C0800600C0E00600CFFFF679F
:1039500080FFFF07E00F8003781CE00118F87C006F
:1039600000C00F0000FFFF00FF1FF0FF3E0000FC43
:10397000C0FFFF07C0FFFF07C0000006C000000631
:10398000C0000006C0FFFF07C0FFFF07C000000621
:10399000000000000000000000000000BFCD00009B
:1039A0000000000000000000000000000000000017
:1039B0000000000000000000000000000000000007
:1039C00000000000000000000000000000000000F7
:1039D00000000000000000000000000000000000E7
:1039E00000000000000000000000000000000000D7
:1039F00000000000000000000000000000000000C7
:103A000000000000000000000000000000000000B6
:103A100000000000000000000000000000000000A6
:103A20000000000000000000000000000000000096
:103A300000000006001F0006FF3F0206FE0006060B
:103A4000C0000C06C0001806C0003006FF1F20068C
:103A5000FF1F0006C0800006E0800306E0030706A3
:103A6000F0060C06F00C0806D8180006DC10F0FF73
:103A7000CEF0FFFFC7F01F06C7000006C200000619
:103A8000C0000006C0000006C0000006C00000061E
:103A9000C00000060000000000000000BFC60000DB
:103AA0000000000000000000000000000000000016
:103AB0000000000000000000000000000000000006
:103AC00000000000000000000000000000000000F6
:103AD00000000000000000000000000000000000E6
:103AE00000000000000000000000000000000000D6
:103AF00000000000000000000000000000000000C6
:103B000000000000000000000000000000000000B5
:103B100000000000000000000000000000000000A5
:103B20000000000000000000000000000000000095
:103B3000000000006000C0006000C0006000C00025
:103B400060F0FFFFFFF7FFFFFF07C0006000C0004D
:103B50006000C0006000C00060F6FF7FE0F7FF7FFC
:103B6000FC8001607F000330630003186000060CD6
:103B700060000C076000B8036000F0016000F8010D
:103B80006000BE0760E00F7E7FFC01F83F3800C098
:103B9000000000000000000000000000BCBC0000AD
:103BA0000000000000000000000000000000000015
:103BB0000000000000000000000000000000000005
:103BC00000000000000000000000000000000000F5
:103BD00000000000000000000000000000000000E5
:104260000000000000000000C003C003C003C00342
:10427000C003C003800380018001800180018001B0
:104280008001800180010000000000008001C00367
:10429000C0038001000000000000000000000000DA
:1042A000C018E01CE01C700E300618038C0184005E
:1042B00000000000000000000000000000000000FE
:1042C00000000000000000000000000000000000EE
:1042D00000000000000000000000000000000000DE
:1042E000000000000000000020102010201020100E
:1042F0002010FE7FFE7FFE7F1008100810081008B7
:1043000010081008FE7FFE7FFE7F180C08040804CA
:104310000804080400000000000000000000000085
:104320000000000080008000C003B00C90189818B6
:10433000981C981CB800B000F000E000C003800793
:10434000800F800C801C80189C189C188C188C0C7A
:104350009806E0038000800080000000000000005C
:1043600000000000000000001C083608220463045E
:10437000630263026302630163012201B61C9C367F
:104380004022406340632063206310631063102267
:104390000836081C000000000000000000000000BB
:1043A0000000000000000000F00098008C018C016B
:1043B0008C018C018C00CC005C0038001C3E3C0859
:1043C000320873086304E304C3048303834306676A
:1043D0008C3E781C0000000000000000000000007F
:1043E0001C003C003C003000300010000C000600B7
:1043F00000000000000000000000000000000000BD
:1044000000000000000000000000000000000000AC
:10441000000000000000000000000000000000009C
:104420000040002000100018000C000400060002EC
:104430000003000380018001800180018001800170
:1044400080018001800100030003000200060004D7
:10445000000C0018001000200040000000000000C8
:104460000200040008001800300020006000400036
:10447000C000C000800180018001800180018001B6
:10448000800180018001C000C000C00060002000E9
:1044900030001800080004000200000000000000C6
:1044A0000000000000000000000000000003800386
:1044B00080030C631C713839600D80038003600D2C
:1044C00038391C718C618003800380030000000078
:1044D00000000000000000000000000000000000DC
:1044E00000000000000000000000000000000001CB
:1044F000000100010001000100010001FC7F00013A
:1045000000010001000100010001000100000000A5
:10451000000000000000000000000000000000009B
:10452000000000000000000000000000000000008B
:10453000000000000000000000000000000000007B
:104540000000000000000000000000001C003C0013
:104550003C003000300010000C000600000000009D
:10456000000000000000000000000000000000004B
:10457000000000000000000000000000FE7F0000BE
:10458000000000000000000000000000000000002B
:10459000000000000000000000000000000000001B
:1045A000000000000000000000000000000000000B
:1045B00000000000000000000000000000000000FB
:1045C00000000000000000000000000018003C0097
:1045D0003C00180000000000000000000000000087
:1045E00000000040006000200030001000180008AB
:1045F000000C00040006000200030001800180009E
:10460000C0004000600020003000100018000800CA
:104610000C00040006000200000000000000000082
:104620000000000000000000C0036004300C1818F7
:10463000181818100C300C300C300C300C300C30BA
:104640000C300C300C300C30181018181818300CB6
:104650006004C00300000000000000000000000033
:10466000000000000000000000018001F80180014E
:104670008001800180018001800180018001800132
:104680008001800180018001800180018001800122
:10469000C003F81F00000000000000000000000040
:1046A0000000000000000000E007101C08180430A3
:1046B00004300C300C30003000180018000C0006DC
:1046C00000038001C000400020201020082004309A
:1046D000FC1FFC1F000000000000000000000000A4
:1046E0000000000000000000E00318060C0C0C188D
:1046F0000C180C1800180018000C0006C003000E5F
:1047000000180010003000300C300C300C100C1869
:10471000180CE00300000000000000000000000092
:10472000000000000000000000060006000700076F
:1047300080068006400620062006100610060806A1
:104740000C0604060206FE3F0006000600060006F0
:104750000006C03F00000000000000000000000054
:104760000000000000000000F03FF03F08000800DB
:104770000800080008000800C807280C18180810CE
:1047800000300030003000300C300C3004180418B9
:10479000180CE00300000000000000000000000012
:1047A000000000000000000080076018301810189A
:1047B0001800080008000C00CC076C0C1C181C101A
:1047C0000C300C300C300C300C3018301810301805
:1047D000700CC00700000000000000000000000096
:1047E0000000000000000000F83FF83F08100C082F
:1047F0000408040400040002000200020001000199
:104800008000800080008000C000C000C000C000A8
:10481000C000C00000000000000000000000000018
:104820000000000000000000E007300C18180C30F9
:104830000C300C301C301C107818F004E003180FFA
:104840000C1E0C1C063806300630063006300C18DC
:10485000180CE00300000000000000000000000051
:104860000000000000000000E00318040C080C1811
:104870000610063006300630063006300E380C348E
:104880001836F03100300018001800080C0C0C0627
:104890000C03F00100000000000000000000000018
:1048A0000000000000000000000000000000000008
:1048B0000000000000008001C003C0038001000070
:1048C0000000000000000000000000008001C003A4
:1048D000C003800100000000000000000000000094
:1048E00000000000000000000000000000000000C8
:1048F0000000000000000000C001C001C001000075
:104900000000000000000000000000000000C001E6
:10491000C001C0018001C000C00000000000000014
:10492000000000000000000000200010000800044B
:104930000002000180004000200010000800080074
:104940001000200040008000000100020004000868
:104950000010002000000000000000000000000027
:104960000000000000000000000000000000000047
:10497000000000000000FE7F0000000000000000BA
:104980000000FE7F000000000000000000000000AA
:104990000000000000000000000000000000000017
:1049A00000000000000000000400080010002000CB
:1049B0004000800000010002000400080010001008
:1049C00000080004000200018000400020001000E8
:1049D00008000400000000000000000000000000CB
:1049E0000000000000000000C00730181830086008
:1049F0000C601C601C601C6000300018000E00037E
:104A00000001000100010001000000008001C0035E
:104A1000C003800100000000000000000000000052
:104A20000000000000000000C007600830101820DF
:104A30000C2B8C4D844CC64CC6446644664466447C
:104A40006646662666266417CC0C0C400820183093
:104A50003018C00700000000000000000000000047
:104A60000000000000000000C001C001C001C00142
:104A70002003200320032003300210061006100636
:104A80001004F80F080C080C080C0418041804187B
:104A900006381F7C0000000000000000000000003D
:104AA0000000000000000000FE07181C1818183055
:104AB00018301830183018301818180CF807181853
:104AC00018301820186018601860186018601830C6
:104AD0001818FE0F00000000000000000000000099
:104AE0000000000000000000C007603810301860AF
:104AF0000C400C400C0006000600060006000600F4
:104B000006000600060006000C400C4008201810A5
:104B10003008C00700000000000000000000000096
:104B20000000000000000000FE03180E1818181006
:104B30001830183018601860186018601860186015
:104B400018601860186018201830183018181818D5
:104B50001806FE0300000000000000000000000036
:104B60000000000000000000FE3F18301820184030
:104B700018401800180018081808180CF80F180C1E
:104B800018081808180018001800184018401820B5
:104B90001830FE3F00000000000000000000000090
:104BA0000000000000000000FE3F183818201840E8
:104BB00018401800180018081808180CF80F180CDE
:104BC000180818081808180018001800180018000D
:104BD00018007E000000000000000000000000003F
:104BE0000000000000000000C003300C100818187E
:104BF0000C100C100400060006000600060006005B
:104C0000067E0618061804180C180C180818181830
:104C10003004E0030000000000000000000000007D
:104C200000000000000000003FFC0C300C300C3095
:104C30000C300C300C300C300C300C30FC3F0C3095
:104C40000C300C300C300C300C300C300C300C3084
:104C50000C303FFC000000000000000000000000DD
:104C60000000000000000000F81F800180018001AA
:104C7000800180018001800180018001800180012C
:104C8000800180018001800180018001800180011C
:104C90008001F81F0000000000000000000000007C
:104CA0000000000000000000E07F00060006000693
:104CB00000060006000600060006000600060006C4
:104CC00000060006000600060006000600060006B4
:104CD000000600060E060E038E01FC000000000018
:104CE00000000000000000007E3E180C18041806AA
:104CF00018021801180198009800D800B801B801EE
:104D00001803180318061806180C180C180C181895
:104D100018187E7C00000000000000000000000069
:104D200000000000000000007E00180018001800BD
:104D300018001800180018001800180018001800B3
:104D40001800180018001800180018401840182003
:104D50001830FE3F000000000000000000000000CE
:104D600000000000000000000FF01C381C381C3848
:104D70001C381C34343434343434343234326432F5
:104D80006432643264314431C431C431C430C4301B
:104D900084308FFC000000000000000000000000D4
:104DA00000000000000000000FF81C201C20342030
:104DB000342064206420C420C4208421842104235E
:104DC000042304260426042C042C0438043804305C
:104DD00004301F2000000000000000000000000060
:104DE0000000000000000000C003300C181808107C
:104DF0000C300C3006200660066006600660066017
:104E000006600660066004600C300C30081018184C
:104E1000300CC00300000000000000000000000093
:104E20000000000000000000FE0F18181830186085
:104E30001860186018601860186018301818F807A3
:104E400018001800180018001800180018001800A2
:104E500018007E00000000000000000000000000BC
:104E60000000000000000000C003300C18180810FB
:104E70000C300C3006600660066006600660066056
:104E80000660066006600660E4211C331C36181EAE
:104E9000300EC007004C003C00380000000000004D
:104EA0000000000000000000FE07181C1818183051
:104EB00018301830183018301818180CF807180364
:104EC0001803180618061806180C180C180C1818D1
:104ED00018187E78000000000000000000000000AC
:104EE0000000000000000000F013181E0C18061847
:104EF0000610061006000E003C00F800E003800FCC
:104F0000001E0018003802300230063004300C1841
:104F10001C0CE4070000000000000000000000007E
:104F20000000000000000000FC3F8C2184618241F1
:104F30008241800180018001800180018001800127
:104F40008001800180018001800180018001800159
:104F50008001E007000000000000000000000000E9
:104F600000000000000000003F7C0C100C100C1032
:104F70000C100C100C100C100C100C100C100C1051
:104F80000C100C100C100C100C100C100C1018083D
:104F90003804E003000000000000000000000000F2
:104FA00000000000000000003E78183018101810B3
:104FB00018103008300830083008300460046004ED
:104FC00060046002C002C002C002C0018001800112
:104FD00080008000000000000000000000000000D1
:104FE0000000000000000000CFF3866186218421CC
:104FF00004210C238C238C238C138C1388134812CC
:1050000058165816580E380E300E300E300C30042C
:105010001004100400000000000000000000000068
:1050200000000000000000003E7C18101808300846
:10503000300460046002C002C00180018001800170
:105040008003400340062006200E100C100C181898
:1050500008383E7C00000000000000000000000056
:1050600000000000000000007E7C1C1018101808D2
:1050700030083008300460046004C002C002C0017F
:105080008001800180018001800180018001800118
:105090008001E007000000000000000000000000A8
:1050A0000000000000000000F87F383018300C18B5
:1050B0000418000C000600060003000380018001B4
:1050C000C000C000600060003000184018600C2074
:1050D0000C38FE3F0000000000000000000000004F
:1050E0000000C03FC000C000C000C000C000C00041
:1050F000C000C000C000C000C000C000C000C000B0
:10510000C000C000C000C000C000C000C000C0009F
:10511000C000C000C000C03F000000000000000050
:1051200000000000000018001800100030002000EF
:10513000600060004000C00080008001800100012C
:105140000003000200060006000C000C000C001812
:105150000018003000300030006000000000000047
:105160000000FC030003000300030003000300032E
:105170000003000300030003000300030003000317
:105180000003000300030003000300030003000307
:10519000000300030003FC03000000000000000007
:1051A000C003C007600410080000000000000000F9
:1051B00000000000000000000000000000000000EF
:1051C00000000000000000000000000000000000DF
:1051D00000000000000000000000000000000000CF
:1051E00000000000000000000000000000000000BF
:1051F00000000000000000000000000000000000AF
:10520000000000000000000000000000000000009E
:1052100000000000000000000000FFFF0000000090
:105220007800C00000010000000000000000000045
:10523000000000000000000000000000000000006E
:10524000000000000000000000000000000000005E
:10525000000000000000000000000000000000004E
:10526000000000000000000000000000000000003E
:10527000000000000000E007180C0C180C180C18B7
:10528000001CE01B38180C1806180618061806989B
:105290000C9EF871000000000000000000000000FB
:1052A00000000000000010001E0018001800180088
:1052B0001800180018009807581C38183830183093
:1052C00018301830183018301830183018103818B6
:1052D000380CC807000000000000000000000000BB
:1052E00000000000000000000000000000000000BE
:1052F000000000000000C0077008301818180C18D3
:105300000C000C000C000C000C000C2018201810D5
:105310003008C0070000000000000000000000008E
:105320000000000000000010001E00180018001807
:10533000001800180018E01B301C181818180C185A
:105340000C180C180C180C180C180C180818181C31
:10535000307AE009000000000000000000000000BA
:10536000000000000000000000000000000000003D
:10537000000000000000C003300C101818100C30A2
:105380000C300C30FC3F0C000C000C0018201810E6
:105390007018C007000000000000000000000000BE
:1053A0000000000000000000003E80618060C060DE
:1053B000C000C000C000FC1FC000C000C000C00092
:1053C000C000C000C000C000C000C000C000C000DD
:1053D000C000F80F00000000000000000000000006
:1053E00000000000000000000000000000000000BD
:1053F000000000000000C077306C10181818181852
:1054000018181018300CF00718001800F803F01FD7
:1054100018380C300C300C301818E0070000000071
:1054200000000000000010001E0018001800180006
:105430001800180018009807580C38181818181871
:1054400018181818181818181818181818181818DC
:1054500018187E7E00000000000000000000000020
:1054600000000000000000008001C0038001000077
:10547000000000000001F80180018001800180012E
:105480008001800180018001800180018001800114
:105490008001F81F00000000000000000000000074
:1054A0000000000000000000001C001E000C0000B6
:1054B000000000000008C00F000C000C000C000CE5
:1054C000000C000C000C000C000C000C000C000C7C
:1054D000000C000C000C18061802F001000000007F
:1054E00000000000000010001E0018001800180046
:1054F000180018001800183E180C1804180218019B
:105500009801D801780338031806180C180C1818DD
:1055100018387E7C00000000000000000000000041
:105520000000000000000001F801800180018001FE
:105530008001800180018001800180018001800163
:105540008001800180018001800180018001800153
:105550008001F81F000000000000000000000000B3
:10556000000000000000000000000000000000003B
:10557000000000000400F73C8E638661866186614E
:1055800086618661866186618661866186618661E3
:105590008661CFF300000000000000000000000062
:1055A00000000000000000000000000000000000FB
:1055B00000000000000090075E0C3818181818183A
:1055C000181818181818181818181818181818185B
:1055D00018187E7E0000000000000000000000009F
:1055E00000000000000000000000000000000000BB
:1055F000000000000000C003300C1018181808301C
:105600000C300C300C300C300C300C3018181818D2
:10561000300CC0030000000000000000000000008B
:10562000000000000000000000000000000000007A
:1056300000000000000090075E0C381818101830A9
:10564000183018301830183018301830181838182A
:10565000780C98071800180018007E000000000061
:10566000000000000000000000000000000000003A
:10567000000000000000C013301E181C18180C1881
:105680000C180C180C180C180C180C180818181CEE
:10569000301EE019001800180018007E00000000FD
:1056A00000000000000000000000000000000000FA
:1056B00000000000000060387E666061E001E000EC
:1056C00060006000600060006000600060006000DA
:1056D0006000FE0700000000000000000000000065
:1056E00000000000000000000000000000000000BA
:1056F000000000000000C02760383030302030202B
:105700007000E003800F001E0038083008301830A9
:105710003818C80F00000000000000000000000062
:105720000000000000000000000000008000800079
:105730008000C000E000FC1FC000C000C000C0002E
:10574000C000C000C000C000C000C000C020C02019
:105750008011000F000000000000000000000000A9
:105760000000000000000000000000000000000039
:105770000000000010101E1E18181818181818180D
:105780001818181818181818181818181818181C95
:10579000307AE00900000000000000000000000076
:1057A00000000000000000000000000000000000F9
:1057B0000000000000003E7C183018101818300857
:1057C0003008200460046004C002C002C0038001ED
:1057D00080018000000000000000000000000000C8
:1057E00000000000000000000000000000000000B9
:1057F000000000000000DFF3866184218C218C21F1
:105800008C13881358135812580E700E300E300C2B
:105810003004200400000000000000000000000030
:105820000000000000000000000000000000000078
:105830000000000000007C3E300870086004C002D8
:10584000C00280018001800340062006200C101851
:1058500018183E7E0000000000000000000000005C
:105860000000000000000000000000000000000038
:105870000000000000003E7C1818180810083008CE
:105880002004600460044002C002800280018001A4
:1058900080008000800040007C003C000000000090
:1058A00000000000000000000000000000000000F8
:1058B000000000000000FC1F0C1C0C0C0406040778
:1058C00000038001C001C00060007020302018304B
:1058D0000C18FC1F00000000000000000000000089
:1058E0000030000800040004000400040004000468
:1058F000000400040004000400040003800100020E
:105900000004000400040004000400040004000477
:105910000004000400040008003000000001000141
:10592000000100010001000100010001000100016F
:10593000000100010001000100010001000100015F
:10594000000100010001000100010001000100014F
:105950000001000100010001000100010000000041
:10596000180020004000400040004000400040007F
:1059700040004000400040004000800100038000E3
:105980004000400040004000400040004000400017
:105990004000400040002000180000000000780097
:1059A000C400824102410027001C000000000000EA
:1059B00000000000000000000000000000000000E7
:1059C00000000000000000000000000000000000D7
:1059D00000000000000000000000000000000000C7
:1059E00000000000000000000000000000000000B7
:1059F00000000000000000000000000000000000A7
:105A00000000000000000000000000000000000096
:105A10000000000060006000600060006000600046
:105A20006000400020002000200000000000000076
:105A30006000600060000000000000000000000046
:105A400060066006300398018800440000000000F2
:105A50000000000000000000000000000000000046
:105A60000000000000000000000000000000000036
:105A7000000000001002100210021002FE07FE07D4
:105A800008020801080108010801FE07FE070401D9
:105A900004010401040100000000000000000000F7
:105AA000000040004000F00158034C03CC034C00C0
:105AB00058007000E000C001C00140034C035C03CB
:105AC0004C034801F00040004000000000000000CE
:105AD000000000000E010A019100910091005100A8
:105AE00051003A00AE03A002500450044804480498
:105AF000480484028403000000000000000000004D
:105B00000000000038006C006C006C006C006C0041
:105B10002C0098071C011A01330133016301E300D3
:105B2000C308C6093C070000000000000000000098
:105B30000C001C0010001000080004000000000011
:105B40000000000000000000000000000000000055
:105B50000000000000000000000000000000000045
:105B6000000400020001800080004000400020008E
:105B700020002000200020002000200040004000E5
:105B8000800080000001000200040000000000000E
:105B90000200040008001000100020002000400057
:105BA0004000400040004000400040002000200035
:105BB00010001000080004000200000000000000B7
:105BC00000000000000000004000C0004000460C43
:105BD0004E0FD001F0015E0F460C40004000400027
:105BE00000000000000000000000000000000000B5
:105BF00000000000000000000000400040004000E5
:105C000040004000FE0F40004000400040004000C7
:105C10000000000000000000000000000000000084
:105C20000000000000000000000000000000000074
:105C30000000000000000000000000000000000064
:105C40000C001C0010001000080004000000000000
:105C50000000000000000000000000000000000044
:105C600000000000FE07000000000000000000002F
:105C70000000000000000000000000000000000024
:105C80000000000000000000000000000000000014
:105C90000000000000000000000000000000000004
:105CA0001C001C001C0000000000000000000000A0
:105CB00000040006000200030001000180008000D3
:105CC000400040006000200020001000100008008C
:105CD00008000C00040006000200000000000000A4
:105CE000000000000000F00098010C030C03060601
:105CF00006060606060606060606060606060C0341
:105D00000C039801F00000000000000000000000FB
:105D100000000000000040007C00600060006000A7
:105D20006000600060006000600060006000600073
:105D300060006000FC0300000000000000000000A4
:105D4000000000000000F8008401020306030603BF
:105D5000000300018001C000600020001000080264
:105D600004020602FE030000000000000000000024
:105D70000000000000007800C60086018601800156
:105D80008001C000700080010001000300030603D1
:105D900006038601F800000000000000000000007B
:105DA00000000000000080018001C001A001A001EE
:105DB00090018801880184018201FE0F8001800129
:105DC00080018001E00700000000000000000000EA
:105DD000000000000000FC030400040004000400B4
:105DE0000400F4008C01040300030003060306030F
:105DF00082018401F80000000000000000000000A3
:105E0000000000000000E00118030C030C00040077
:105E10000600E60116030E0606060606060604063A
:105E20000C021803F0000000000000000000000059
:105E3000000000000000F8070C0604020401000145
:105E400000018000800040004000400060006000D1
:105E50006000600060000000000000000000000022
:105E6000000000000000F8010C0306060606060606
:105E70000C021C03F000C8010C0306060606060609
:105E800006060C03F0010000000000000000000006
:105E9000000000000000F0000C010C0306020606E2
:105EA0000606060606078C067806000600030003B1
:105EB0000C018C01780000000000000000000000D0
:105EC00000000000000000000000000000000000D2
:105ED000E000E000E0000000000000000000000022
:105EE000E000E000E0000000000000000000000012
:105EF00000000000000000000000000000000000A2
:105F000060006000000000000000000000000000D1
:105F10000000600060004000200020000000000041
:105F2000000000000004000200018000400020008A
:105F3000100008000400080010002000400080004D
:105F4000000100020004000000000000000000004A
:105F50000000000000000000000000000000000041
:105F6000FE07000000000000FE0700000000000027
:105F70000000000000000000000000000000000021
:105F80000000000004000800100020004000800015
:105F90000001000200040002000180004000200017
:105FA00010000800040000000000000000000000D5
:105FB000000000000000E0031806040C040C0C0CA8
:105FC0000C0C000780014000400040000000000071
:105FD000E000E000E0000000000000000000000021
:105FE00000000000E00018030C02CC056405660503
:105FF000A605B604B604B604B604B602E4010C0461
:106000000C021803F0000000000000000000000077
:10601000000000000000600060005000D000900010
:106020009000880088010801F801040304030402B9
:10603000020202060F0F0000000000000000000036
:10604000000000000000FE008C030C030C030C0396
:106050000C038C01FC000C030C020C060C060C0655
:106060000C060C03FE010000000000000000000010
:10607000000000000000E00318030C060C040404F8
:1060800006000600060006000600060006040C04D2
:106090000C021803F00000000000000000000000E7
:1060A0000000000000007F008C010C030C030C06B4
:1060B0000C060C060C060C060C060C060C060C0353
:1060C0000C038C017F0000000000000000000000B5
:1060D000000000000000FF0306030604060406009B
:1060E00086008600FE008600860086000600060404
:1060F00006040602FF03000000000000000000008C
:10610000000000000000FF0306030604060406006A
:1061100086008600FE0086008600860006000600D7
:10612000060006001F000000000000000000000044
:10613000000000000000F00018010C020C02040234
:106140000600060006000600C60F060306030C0341
:106150000C031803F0000000000000000000000025
