:020000040800F2
:10000000B0060020CD010008D9080008B30300089D
:10001000D50800087D020008B10E000800000000AD
:10002000000000000000000000000000490C000873
:100030008102000800000000510B00085D0D00085F
:10004000E7010008E7010008E7010008E7010008F0
:10005000E7010008E7010008E7010008E7010008E0
:10006000E7010008E7010008E7010008E7010008D0
:10007000E7010008E7010008E7010008E7010008C0
:10008000E7010008E7010008E7010008E7010008B0
:10009000E7010008E7010008E7010008E7010008A0
:1000A000E7010008E7010008E7010008E701000890
:1000B000E7010008E7010008E7010008E701000880
:1000C000E7010008E7010008E7010008E701000870
:1000D000E7010008E7010008E7010008E701000860
:1000E000E7010008E7010008E7010008E701000850
:1000F000E7010008E7010008E7010008E701000840
:10010000E7010008E7010008E7010008E70100082F
:10011000E7010008E7010008E7010008E70100081F
:10012000E7010008E7010008E7010008E70100080F
:1001300000F002F800F03AF80AA090E8000C8244BF
:100140008344AAF10107DA4501D100F02FF8AFF29C
:10015000090EBAE80F0013F0010F18BFFB1A43F0A5
:10016000010318472C1900004C190000103A24BF55
:1001700078C878C1FAD8520724BF30C830C144BF0C
:1001800004680C607047000000230024002500264E
:10019000103A28BF78C1FBD8520728BF30C148BFEA
:1001A0000B6070471FB51FBD10B510BD00F038F8CB
:1001B0001146FFF7F7FF00F059FF00F056F803B4BF
:1001C000FFF7F2FF03BC00F095FE000009488047EE
:1001D00009480047FEE7FEE7FEE7FEE7FEE7FEE729
:1001E000FEE7FEE7FEE7FEE704480549054A064B41
:1001F00070470000610D000831010008B0000020C8
:10020000B0060020B0020020B00200207047704706
:10021000704770477047000000487047500000204A
:100220007546FFF7F9FFAE4605006946534620F0D4
:100230000700854618B020B5FFF7D6FFBDE820407F
:100240004FF000064FF000074FF000084FF0000B92
:1002500021F00701AC46ACE8C009ACE8C009ACE845
:10026000C009ACE8C0098D46704710B50446AFF32D
:1002700000802046BDE81040FFF7A1BF00BFFEE7A9
:1002800070472DE9F041024600250026002000239A
:100290000024002791F803C00CF00F0591F803C06B
:1002A0000CF0100CBCF1000F03D091F802C04CEA26
:1002B000050591F800C0BCF1000F31D01468002092
:1002C0002BE04FF0010C0CFA00F3B1F800C00CEA7F
:1002D00003069E4220D183004FF00F0C0CFA03F767
:1002E000BC4305FA03FC4CEA040491F803C0BCF1DA
:1002F000280F06D14FF0010C0CFA00FCC2F814C014
:100300000AE091F803C0BCF1480F05D14FF0010C91
:100310000CFA00FCC2F810C0401C0828D1D31460AD
:10032000B1F800C0BCF1FF0F34DD546800202EE0AE
:1003300000F1080C4FF0010808FA0CF3B1F800C006
:100340000CEA03069E4221D183004FF00F0C0CFAF9
:1003500003F7BC4305FA03FC4CEA040491F803C01C
:10036000BCF1280F05D100F1080C08FA0CF8C2F80E
:10037000148091F803C0BCF1480F07D100F1080CBC
:100380004FF0010808FA0CF8C2F81080401C082849
:10039000CED35460BDE8F0810246002093680B4044
:1003A0000BB1012000E00020704701617047C1607F
:1003B000704700BFFEE7000070B50546244800689E
:1003C00020F0F000224908600846006840F0300044
:1003D0000860802418E004EA050018B900201D49CF
:1003E000086002E001201B490860042000F0CCFDF9
:1003F00001201849091F0860042000F0C5FD0020F5
:100400001549C1F880016410002CE4D1104800683F
:1004100020F0F0000E4908600846006840F08000B7
:10042000086001200B490860042000F0ADFD0120A8
:100430000949C1F88001074880380068C6B2042025
:1004400000F0A2FD00200449C1F88001304670BDD3
:10045000000C0140848121420080214210B50F48E8
:10046000006820F0F0000D4908600846006840F080
:100470003000086001200A4908600A49C1F880017B
:10048000042000F081FD002005490860042000F0F0
:100490007BFD00200349C1F8800110BD000C014024
:1004A000848121420080214210B50F48006820F06D
:1004B000F0000D4908600846006840F03000086010
:1004C00000200A4908600A49C1F88401042000F0AC
:1004D0005BFD0120054908600549C1F8840104203D
:1004E00000F052FD10BD0000000C0140808121424F
:1004F0000080214208B50121042000F02BFB0F20D1
:10050000ADF8000003208DF8020010208DF80300E4
:1005100069460B48FFF7B5FE0F210948FFF745FF75
:10052000F020ADF8000048208DF80300694604482B
:10053000FFF7A7FEF0210248FFF737FF08BD0000D4
:100540000008014010B50446FE21D548FFF72FFFF3
:100550001021D348FFF720FF78B12021D048FFF7C2
:100560001BFF50B14021CE48FFF716FF28B1802174
:10057000CB48FFF711FF002850D10A2000F0DEFC25
:100580001021C748FFF708FF58B90120C549087076
:10059000207000BF1021C248FFF7FEFE0028F9D0EE
:1005A0003CE02021BE48FFF7F7FE60B90120BD49BD
:1005B00008700220207000BF2021B948FFF7ECFE30
:1005C0000028F9D02AE04021B548FFF7E5FE60B9E0
:1005D0000120B44908700320207000BF4021B048BA
:1005E000FFF7DAFE0028F9D018E08021AC48FFF7C9
:1005F000D3FE60B90120AB4908700420207000BF11
:100600008021A748FFF7C8FE0028F9D006E00020A7
:10061000A4490870FF21A248FFF7C9FEFD21A048A8
:10062000FFF7C5FE10219E48FFF7B6FE78B12021E6
:100630009B48FFF7B1FE50B140219948FFF7ACFE4F
:1006400028B180219648FFF7A7FE002851D10A2043
:1006500000F074FC10219248FFF79EFE60B9012063
:10066000904908700520207000BF10218C48FFF7CA
:1006700093FE0028F9D03CE020218948FFF78CFE4A
:1006800060B90120874908700620207000BF202132
:100690008348FFF781FE0028F9D02AE040218048F6
:1006A000FFF77AFE60B901207E49087007202070AC
:1006B00000BF40217A48FFF76FFE0028F9D018E00C
:1006C00080217748FFF768FE60B9012075490870FE
:1006D0000820207000BF80217148FFF75DFE0028D0
:1006E000F9D006E000206F490870FF216C48FFF741
:1006F0005EFEFB216A48FFF75AFE10216848FFF7AB
:100700004BFE78B120216648FFF746FE50B14021EC
:100710006348FFF741FE28B180216148FFF73CFEA6
:10072000002851D10A2000F009FC10215C48FFF795
:1007300033FE60B901205B4908700920207000BFBA
:1007400010215748FFF728FE0028F9D03CE020216F
:100750005348FFF721FE60B90120524908700A2072
:10076000207000BF20214E48FFF716FE0028F9D068
:100770002AE040214A48FFF70FFE60B901204949AD
:1007800008700B20207000BF40214548FFF704FE91
:100790000028F9D018E080214148FFF7FDFD60B93D
:1007A0000120404908700C20207000BF80213C4887
:1007B000FFF7F2FD0028F9D006E000203949087063
:1007C000FF213748FFF7F3FDF7213548FFF7EFFD2D
:1007D00010213348FFF7E0FD70B120213048FFF7CA
:1007E000DBFD48B140212E48FFF7D6FD20B1802126
:1007F0002B48FFF7D1FD28BB0A2000F09FFB1021FA
:100800002748FFF7C9FD60B90120264908700D206F
:10081000207000BF10212248FFF7BEFD0028F9D04C
:100820003CE020211E48FFF7B7FD60B901201D49BB
:1008300008700E20207000BF20211948FFF7ACFD82
:100840000028F9D02AE040211548FFF7A5FD60B93E
:100850000120144908700F20207000BF402110486B
:10086000FFF79AFD0028F9D018E080210C48FFF727
:1008700093FD60B901200B4908701020207000BF63
:1008800080210748FFF788FD0028F9D006E0002006
:1008900004490870FF210248FFF789FD10BD0000E0
:1008A000000801402A00002008B50121102000F0B6
:1008B00051F910208DF803004002ADF8000003202C
:1008C0008DF8020069460248FFF7DBFC08BD000016
:1008D0000010014000BFFEE7704770B5002415E02E
:1008E00004F1B001C8B200F0E5FA002000F0E2FA2D
:1008F000102000F0DFFA002504E0002000F0EAFA02
:10090000681CC5B2802DF8DB601CC4B2082CE7DB84
:1009100070BD000008B50121082000F01BF903207C
:10092000ADF8000010208DF8030003208DF80200C0
:1009300069462F48FFF7A5FC01202E4908602E4983
:10094000C1F884014FF4487000F0F8FAAE2000F0CE
:10095000B1FA002000F0AEFA102000F0ABFA40200F
:1009600000F0A8FAB02000F0A5FA812000F0A2FA69
:10097000FF2000F09FFAA12000F09CFAA62000F0D2
:1009800099FAA82000F096FA3F2000F093FAC820C8
:1009900000F090FAD32000F08DFA002000F08AFADF
:1009A000202000F087FA022000F084FAD52000F021
:1009B00081FA802000F07EFAD92000F07BFAF12045
:1009C00000F078FADA2000F075FA122000F072FADE
:1009D000DB2000F06FFA302000F06CFA8D2000F080
:1009E00069FA142000F066FAAF2000F063FA08BD3F
:1009F000000C0140808121420080214210B5024656
:100A0000012000E050430B1EA1F10101FAD110BDFD
:100A100070B504460D4605F1B001C8B200F04AFABF
:100A2000102141EA141000F045FA04F00F0000F024
:100A300041FA70BD2DE9F04707460E4690469946AB
:100A400000250024A8F12000C5B27F2F02DD002779
:100A5000B01CC6B2B9F1100F22D131463846FFF7AB
:100A6000D7FF002407E004EB0511174A505C00F0A3
:100A700031FA601CC4B2082CF5DB701CC1B23846D8
:100A8000FFF7C6FF002408E004EB051108310E4A09
:100A9000505C00F01FFA601CC4B2082CF4DB11E0BB
:100AA00031463846FFF7B4FF002409E005EB450165
:100AB000064A02EB4101085D00F00CFA601CC4B26A
:100AC000062CF3DBBDE8F087A013000878110008BE
:100AD0002DE9F0470646884617461D46002418E0D3
:100AE000281B411E0A20FFF789FFB7FBF0F00A21FF
:100AF000B0FBF1F201FB120000F13009082101FB0B
:100B00000461C8B210234A464146FFF793FF601CB8
:100B1000C4B2AC42E4DBBDE8F0872DE9F041054604
:100B20000E4614461F460EE014F8012B3B46314694
:100B30002846FFF77FFF05F10800C5B2782D02DDDA
:100B40000025B01CC6B220780028EDD1BDE8F081A8
:100B50007047000029B1064A92690243044B9A612A
:100B600004E0034A92698243014B9A617047000096
:100B70000010024030B500210022002400232D4D3A
:100B80006D6805F00C0121B1042905D0082923D195
:100B900005E0294D056022E0274D05601FE0254D49
:100BA0006D6805F47012234D6D6805F480340225DC
:100BB00005EB92421CB9214D554305600BE01D4DDC
:100BC0006D6805F400351DB11C4D5543056002E00C
:100BD000194D5543056002E0174D056000BF00BF89
:100BE000144D6D6805F0F0010909154D6B5C056841
:100BF000DD4045600F4D6D6805F4E061090A104D58
:100C00006B5C4568DD4085600A4D6D6805F4605198
:100C1000C90A0B4D6B5C4568DD40C560054D6D68CC
:100C200005F44041890B074D6B5CC568B5FBF3F5D6
:100C3000056130BD0010024000127A0000093D003D
:100C40001400002024000020704710B500F002F8C6
:100C500010BD00000CB500200190009033480068E2
:100C600040F480303149086000BF3048006800F42B
:100C7000003000900198401C0190009818B901982C
:100C8000B0F5A06FF1D12948006800F4003010B130
:100C90000120009001E0002000900098012843D13D
:100CA0002348006840F010002149086008460068A9
:100CB00020F0030008600846006840F00200086069
:100CC0001A48406819494860084640684860084624
:100CD000406840F4806048600846406820F47C101A
:100CE00048600846406840F4E810486008460068DC
:100CF00040F08070086000BF0C48006800F0007091
:100D00000028F9D00948406820F0030007494860EE
:100D10000846406840F00200486000BF0348406851
:100D200000F00C000828F9D10CBD000000100240B2
:100D300000200240042808D14FF0E021096941F069
:100D400004014FF0E022116107E04FF0E021096952
:100D500021F004014FF0E02211617047704700005C
:100D600010B51348006840F00100114908600846BA
:100D70004068104908400E494860084600680E491E
:100D800008400B4908600846006820F4802008608D
:100D90000846406820F4FE0048604FF41F00886059
:100DA000FFF753FF4FF000600449086010BD0000DA
:100DB000001002400000FFF8FFFFF6FE08ED00E023
:100DC00021B1828942F40052828104E082894DF689
:100DD000FF731A40828170472DE9F04786B00546BF
:100DE0000E460024A24600BFA1460027B08900B1EC
:100DF00000BF2F462C8A4CF6FF700440F088044355
:100E00002C82AC894EF6F3100440B0883189084337
:100E1000718908430443AC81AC8A4FF6FF4004401B
:100E2000B0890443AC8201A8FFF7A4FE1F488742A3
:100E300002D1DDF810A001E0DDF80CA0A88900F4D3
:100E4000004040B10AEBCA0000EB0A1031684900CB
:100E5000B0FBF1F807E00AEBCA0000EB0A103168BA
:100E60008900B0FBF1F86420B8FBF0F00401200920
:100E7000642101FB1089A88900F4004040B13220B0
:100E800000EBC900B0FBF1F000F00700044308E0FC
:100E9000322000EB09106421B0FBF1F000F00F00EC
:100EA00004432C8106B0BDE8F08700000038014003
:100EB00000BFFEE710B50446FFF7D0FA7820FFF731
:100EC0007BFA0020FFF778FA2046FFF775FAFFF764
:100ED000EBFA10BD10B50446FFF7C0FA7820FFF713
:100EE0006BFA4020FFF768FA2046FFF765FAFFF734
:100EF000DBFA10BD00BF704710B56FF00400FFF7BC
:100F000019FF0A4800680A49B0FBF1F00949087066
:100F10000846007800EB4001C1EBC0104FF6FF71AE
:100F200001EAC0000449088010BD00000000002054
:100F300000127A002C0000202E0000200146114AE9
:100F400012884A434FF0E0235A6100229A611A4600
:100F5000126942F001021A6100BF4FF0E0221069ED
:100F600000F001021AB100F48032002AF5D04FF0EF
:100F7000E022126922F001024FF0E0231A61002200
:100F80009A6170472E0000200146114A12784A43A8
:100F90004FF0E0235A6100229A611A46126942F02A
:100FA00001021A6100BF4FF0E022106900F0010257
:100FB0001AB100F48032002AF5D04FF0E022126915
:100FC00022F001024FF0E0231A6100229A6170477B
:100FD0002C00002070B50446002532E01D48FFF7C4
:100FE000B1FA1D480078012824D1012C04D11948F8
:100FF00000781A4948550CE0022C04D115480078B5
:101000001749485505E0032C03D1124800781549CB
:10101000485510232A22022113480078FFF70AFDC1
:10102000681CC5B21048007808300F4908700020CD
:101030000949087002230C48027806210020FFF7B6
:1010400047FD044800780F28C8D1002006490870E1
:1010500070BD0000280000202A0000203000002081
:101060003A0000204400002029000020FFF744FF40
:10107000FFF71AFCFFF73EFAFFF74CFC00F03EF8D2
:10108000FFF72BFC102311A200210846FFF745FDB6
:101090001BE00120FFF79EFF104800780F2811D1B8
:1010A000FFF71BFC10230EA200210846FFF735FDB9
:1010B00040F2EE20FFF742FF10230AA2002108466B
:1010C000FFF72BFD002005490870E2E7696E707597
:1010D000742070617373776F7264000028000020C1
:1010E0004F4B0000456E7465722074686520636F15
:1010F000646520746F206F70656E000000B585B068
:10110000012144F20400FFF725FD18208DF813009B
:101110004FF40070ADF8100003208DF8120004A900
:101120001348FFF7AEF804208DF813000002ADF865
:10113000100004A90E48FFF7A4F84FF4E130009026
:101140000020ADF80C000C20ADF80A000020ADF82E
:101150000800ADF80600ADF8040069460548FFF741
:101160003BFE01210348FFF72BFE05B000BD000048
:1011700000080140003801400000000000000000AD
:10118000002F000000000700070000147F147F14E8
:1011900000242A7F2A12006264081323003649556E
:1011A000225000000503000000001C224100000046
:1011B00041221C000014083E08140008083E0808DC
:1011C000000000A060000008080808080000606037
:1011D0000000002010080402003E5149453E000076
:1011E000427F4000004261514946002141454B3158
:1011F000001814127F10002745454539003C4A4924
:101200004930000171090503003649494936000695
:101210004949291E000036360000000056360000FD
:101220000008142241000014141414140000412278
:10123000140800020151090600324959513E007C50
:101240001211127C007F49494936003E414141223A
:10125000007F4141221C007F49494941007F090923
:101260000901003E4149497A007F0808087F0000D3
:10127000417F4100002040413F01007F081422418E
:10128000007F40404040007F020C027F007F040846
:10129000107F003E4141413E007F09090906003EA2
:1012A0004151215E007F09192946004649494931CB
:1012B0000001017F0101003F4040403F001F2040EE
:1012C000201F003F4038403F0063140814630007AC
:1012D0000870080700615149454300007F41410003
:1012E00000552A552A55000041417F0000040201A3
:1012F0000204004040404040000001020400002081
:1013000054545478007F48444438003844444420BE
:1013100000384444487F00385454541800087E096B
:1013200001020018A4A4A47C007F08040478000033
:10133000447D4000004080847D00007F10284400F0
:101340000000417F4000007C04180478007C080401
:10135000047800384444443800FC2424241800183D
:10136000242418FC007C0804040800485454542029
:1013700000043F444020003C4040207C001C2040B2
:10138000201C003C4030403C004428102844001CF5
:10139000A0A0A07C004464544C44141414141414ED
:1013A000000000000000000000000000000000003D
:1013B000000000F8000000000000003330000000D2
:1013C00000100C06100C06000000000000000000D9
:1013D00040C07840C0784000043F04043F0404004B
:1013E000007088FC08300000001820FF211E00005B
:1013F000F008F000E018000000211C031E211E0070
:1014000000F00888700000001E21232419272110F5
:1014100010160E0000000000000000000000000098
:10142000000000E01804020000000007182040003F
:1014300000020418E000000000402018070000002F
:10144000404080F0804040000202010F0102020093
:10145000000000F0000000000101011F0101010077
:10146000000000000000000080B0700000000000DC
:101470000000000000000000000101010101010165
:1014800000000000000000000030300000000000FC
:1014900000000000806018040060180601000000D1
:1014A00000E010080810E000000F102020100F00CE
:1014B000001010F8000000000020203F2020000055
:1014C00000700808088870000030282422213000AD
:1014D00000300888884830000018202020110E00B5
:1014E0000000C02010F8000000070424243F24005E
:1014F00000F80888880808000019212020110E0033
:1015000000E0108888180000000F112020110E0044
:1015100000380808C83808000000003F000000003C
:101520000070880808887000001C222121221C00FD
:1015300000E010080810E0000000312222110F0026
:10154000000000C0C00000000000003030000000BB
:10155000000000800000000000008060000000002B
:101560000000804020100800000102040810200044
:10157000404040404040400004040404040404008F
:101580000008102040800000002010080402010024
:10159000007048080808F000000000303601000024
:1015A000C030C828E810E0000718272423140B00D7
:1015B0000000C038E0000000203C23020227382051
:1015C00008F8888888700000203F202020110E0035
:1015D000C03008080808380007182020201008002C
:1015E00008F808080810E000203F202020100F0015
:1015F00008F88888E8081000203F202023201800E1
:1016000008F88888E8081000203F20000300000048
:10161000C03008080838000007182020221E0200E9
:1016200008F808000008F808203F210101213F20A8
:10163000000808F8080800000020203F20200000D3
:1016400000000808F8080800C08080807F000000C3
:1016500008F888C028180800203F200126382000FC
:1016600008F8080000000000203F20202020300063
:1016700008F8F800F8F80800203F003F003F20007D
:1016800008F830C00008F808203F200007183F0085
:10169000E01008080810E0000F10202020100F00B4
:1016A00008F808080808F000203F210101010000A7
:1016B000E01008080810E0000F18242438504F00EC
:1016C00008F8888888887000203F2000030C3020AC
:1016D00000708808080838000038202121221C00EA
:1016E000180808F8080818000000203F2000000033
:1016F00008F808000008F808001F202020201F001C
:101700000878880000C83808000007380E0100007B
:10171000F80800F80008F800033C0700073C030045
:10172000081868808068180820302C03032C3020AB
:101730000838C800C83808000000203F200000001A
:1017400010080808C8380800203826212020180072
:10175000000000FE020202000000007F4040400046
:10176000000C30C000000000000000010638C0007E
:1017700000020202FE000000004040407F00000026
:10178000000004020202040000000000000000004B
:101790000000000000000000808080808080808049
:1017A0000002020400000000000000000000000031
:1017B00000008080808000000019242222223F2027
:1017C00008F8008080000000003F112020110E006A
:1017D0000000008080800000000E112020201100F9
:1017E000000000808088F800000E112020103F20AB
:1017F0000000808080800000001F2222222213002F
:10180000008080F0888888180020203F2020000079
:101810000000808080808000006B9494949360002E
:1018200008F8008080800000203F210000203F2039
:1018300000809898000000000020203F2020000039
:10184000000000809898000000C08080807F000029
:1018500008F8000080808000203F24022D30200006
:10186000000808F8000000000020203F20200000B1
:101870008080808080808000203F20003F20003FCB
:101880008080008080800000203F210000203F20D9
:101890000000808080800000001F202020201F008A
:1018A000808000808000000080FFA12020110E00B9
:1018B0000000008080808000000E112020A0FF80AA
:1018C000808080008080800020203F212000010057
:1018D00000008080808080000033242424241900AC
:1018E000008080E0808000000000001F20200000B9
:1018F0008080000000808000001F202020103F20FA
:10190000808080000080808000010E300806010089
:1019100080800080008080800F300C030C300F002E
:1019200000808000808080000020312E0E31200059
:10193000808080000080808080818E701806010089
:1019400000808080808080000021302C22213000A7
:1019500000000000807C020200000000003F4040C8
:1019600000000000FF00000000000000FF00000079
:101970000002027C800000000040403F00000000A8
:101980000006010102020404000000000000000043
:10199000060909E6F80C040202020202041E000015
:1019A000000000071F302040404040402010000051
:1019B0001060028C00FE02F202FE00F800FF000040
:1019C00004047E018047300F10270047807F00000D
:1019D0001010D0FF905020908C838C9020404000BD
:1019E000040300FF0001003F4044484740700000EE
:1019F000008060F807101010D0FFD0101010000009
:101A0000010000FF1008040B08FF080B0408100079
:101A10001060028C0000FE9292929292FE000000F2
:101A200004047E01407E42427E427E42427E40006D
:101A3000101010FF109082FEAAAAAAAAFE4240002F
:101A40000444827F81422A126E805E22538E80007F
:101A50000000FC4444444444FE42424342404000AF
:101A60000000FF4020000000010608102040F800A0
:101A70000000FC242424FC252624FC242424040027
:101A800040308F80844C55252525554C8080800022
:101A9000B01A000800000020300000006C010008AF
:101AA000E01A0008300000208006000088010008CD
:101AB00000A24A040000000000000000010203042C
:101AC00006070809000000000102030401020304E4
:101AD00006070809020406080000000000000000D4
:0400000508000131BD
:00000001FF
