:020000040800F2
:10000000B80F0020D5010008E9140008F70900081E
:10001000E51400089D060008C51B0008000000004C
:10002000000000000000000000000000551800085B
:10003000A10600080000000071150008A5190008BD
:10004000EF010008EF010008EF010008EF010008D0
:10005000EF010008EF010008EF010008EF010008C0
:10006000EF010008EF010008EF010008EF010008B0
:10007000EF010008EF010008EF010008EF010008A0
:10008000EF010008EF010008EF010008EF01000890
:10009000EF010008EF010008EF010008A5060008C5
:1000A000EF010008EF010008EF010008EF01000870
:1000B000EF010008EF010008EF010008EF01000860
:1000C000EF010008EF010008EF010008EF01000850
:1000D000EF010008EF010008EF010008EF01000840
:1000E000EF010008EF010008EF010008EF01000830
:1000F000EF010008EF010008EF010008EF01000820
:10010000EF010008EF010008EF010008EF0100080F
:10011000EF010008EF010008EF010008EF010008FF
:10012000EF010008EF010008EF010008EF010008EF
:1001300000F002F800F03FF80AA090E8000C8244BA
:100140008344AAF10107DA4501D100F034F8AFF297
:10015000090EBAE80F0013F0010F18BFFB1A43F0A5
:1001600001031847148E0000348E0000103A24BF9B
:1001700078C878C1FAD8520724BF30C830C144BF0C
:1001800004680C607047000000230024002500264E
:10019000103A28BF78C1FBD8520728BF30C148BFEA
:1001A0000B607047642900F07380002070471FB512
:1001B0001FBD10B510BD00F043FA1146FFF7F7FF61
:1001C00001F092FE00F061FA03B4FFF7F2FF03BC06
:1001D00001F001FD0948804709480047FEE7FEE7B6
:1001E000FEE7FEE7FEE7FEE7FEE7FEE7FEE7FEE7E7
:1001F00004480549054A064B70470000A919000844
:1002000031010008B8090020B80F0020B80B002009
:10021000B80B0020704700000FB41CB5074B06AAAE
:100220007B4469460090059800F0EDF9002069468E
:1002300000F0FCF91CBC5DF814FB00000904000090
:1002400070B5044685690068C10601D5302600E016
:100250002026C00707D070BDD4E901213046904761
:10026000206A401C20626D1EF6D570BD70B5044634
:1002700085690078C00707D170BDD4E9012120202D
:100280009047206A401C20626D1EF6D570BD0000AC
:100290002DE9F0410646002410687529314616A55F
:1002A00010D0AFF30080002802DA404213A507E027
:1002B00031688A0701D512A502E0490704D511A5C6
:1002C000012401E0AFF3008000210A2206F1240797
:1002D00009E0B0FBF2FCB0FBF2F302FB1C00303093
:1002E00078541846491C0028F3D123462A46304644
:1002F000BDE8F04100F029B9000000002D00000029
:100300002B000000200000002DE9F05F8946044624
:100310004FF0000ADFF874B1FB44C0F820A020467B
:10032000E1688847002874D0252806D0D4E9012147
:100330009047206A401C2062F1E700265F46204675
:10034000E16888472028054607DB312D05D278195A
:1003500010F8200C08B10643F1E7B00701D526F0EC
:100360000406C4F81CA00027C4F818A02A2D09D040
:10037000284601F029FC38B304EB8708303DC8F863
:10038000185019E059F8041B204604EB87029161CC
:10039000E1688847012F054618D1E069002820DA76
:1003A00026F020061DE0D8F8180000EB800005EBD1
:1003B00040003038C8F818002046E16888470546F4
:1003C00001F002FC0028EED1012F0AD02E2D08D119
:1003D0002046E16888477F1C0546022F46F020062C
:1003E000C4DBA069002803DA404246F00106A061A0
:1003F000F00701D026F010066C2D0BD0682D09D027
:100400004C2D39D06A2D35D0742D35D07A2D33D07E
:1004100016E038E0E1682F4620468847B842054696
:1004200009D16C2F26D04FF48060E1680643204646
:100430008847054604E06C2F1AD04FF480700643BD
:100440000DB3A5F14100192802D8203546F4006605
:100450004A462946204626604E46FFF7A3FE80B155
:1004600001280BD0F61D26F0070000F1080956E719
:100470004020E4E78020D8E70020D6E706F1040911
:100480004DE7284652E7206ABDE8F09F4A8C0000FD
:1004900010B5203AC0F00B80B1E81850203AA0E81F
:1004A0001850B1E81850A0E81850BFF4F5AF5FEA53
:1004B000027C24BFB1E81850A0E8185044BF18C906
:1004C00018C0BDE810405FEA827C24BF51F8043BAD
:1004D00040F8043B08BF7047D20728BF31F8023B01
:1004E00048BF11F8012B28BF20F8023B48BF00F895
:1004F000012B70474FF0000200B513469446964614
:10050000203922BFA0E80C50A0E80C50B1F1200126
:10051000BFF4F7AF090728BFA0E80C5048BF0CC0D4
:100520005DF804EB890028BF40F8042B08BF704732
:1005300048BF20F8022B11F0804F18BF00F8012BA4
:10054000704770477047704770472DE9F0470D4678
:1005500099469246044600F124080168880604D5AD
:10056000E06921F01001216000E00120A84201DDD6
:10057000471B00E00027A1697A1902EB0900081A5D
:10058000A0612078C00602D42046FFF759FE00265D
:1005900008E0D4E901211AF806009047206A401CBF
:1005A000761C20624E45F4DB2078C0060AD5204632
:1005B000FFF746FE06E0D4E9012130209047206A8B
:1005C000401C2062381EA7F10107F4DC07E0D4E9E3
:1005D000012118F805009047206A401C2062281E5F
:1005E000A5F10105F3DC2046FFF740FE2078000668
:1005F00002D50220BDE8F0870120FBE701694A1C13
:1006000002610878704700B58FB0CDE90131002153
:10061000059105497944CDE9031011466846FFF775
:1006200073FE0FB000BD0000E5FFFFFF0A6802F88F
:10063000010B0A6070470000004870475409002011
:100640007546FFF7F9FFAE4605006946534620F0B0
:100650000700854618B020B5FFF7CAFDBDE8204069
:100660004FF000064FF000074FF000084FF0000B6E
:1006700021F00701AC46ACE8C009ACE8C009ACE821
:10068000C009ACE8C0098D46704710B50446AFF309
:1006900000802046BDE81040FFF796BD00BFFEE792
:1006A0007047000010B50A2001F096FB1048007852
:1006B00008B9012000E000200E49096809B90121AC
:1006C00000E00021084038B100200B4908600120FB
:1006D0000A49C1F8840106E00120074908600020AA
:1006E0000649C1F884014FF4807000F031F810BD64
:1006F0002000002020012142B4012242008021423A
:100700000EB50121084600F07FFF0821002000F00F
:100710006FF84FF48070019000208DF808001020D1
:100720008DF8090001208DF80A0001A800F016F8E4
:1007300017208DF8000002208DF8010000208DF8B0
:10074000020001208DF80300684600F0CFFE0EBDC8
:10075000014908607047000014040140002123494A
:100760008279002A3AD00A46126803689A430B46F7
:100770001A600A1D126803689A430B1D1A600279F9
:1007800011440A6803681A430A60184A083212685A
:1007900003689A43154B08331A601A1D12680368E0
:1007A0009A43124B0C331A604279102A0ED11A1F49
:1007B000126803681A430D4B08331A601A1D126839
:1007C00003681A43094B0C331A600DE0074942795C
:1007D00011440A6803681A430A6005E0027911446B
:1007E0000A6803689A430A607047000000040140E9
:1007F00030B500228B071C0F0F2303FA04F20B4BBA
:100800008C1053F824309343084C8D1044F8253055
:1008100023468C1053F824308C07240F00FA04F47C
:100820002343024C8D1044F8253030BD08000140B0
:100830002DE9F04102460025002600200023002477
:10084000002791F803C00CF00F0591F803C00CF0DD
:10085000100CBCF1000F03D091F802C04CEA050562
:1008600091F800C0BCF1000F31D0146800202BE0DB
:100870004FF0010C0CFA00F3B1F800C00CEA0306CB
:100880009E4220D183004FF00F0C0CFA03F7BC43BB
:1008900005FA03FC4CEA040491F803C0BCF1280FEC
:1008A00006D14FF0010C0CFA00FCC2F814C00AE0AB
:1008B00091F803C0BCF1480F05D14FF0010C0CFAC0
:1008C00000FCC2F810C0401C0828D1D31460B1F855
:1008D00000C0BCF1FF0F34DD546800202EE000F1B1
:1008E000080C4FF0010808FA0CF3B1F800C00CEA4C
:1008F00003069E4221D183004FF00F0C0CFA03F740
:10090000BC4305FA03FC4CEA040491F803C0BCF1B3
:10091000280F05D100F1080C08FA0CF8C2F8148071
:1009200091F803C0BCF1480F07D100F1080C4FF05B
:10093000010808FA0CF8C2F81080401C0828CED331
:100940005460BDE8F0810000F0B50A4600230024A1
:100950000021002500F00046B6F1004F02D11D4EE7
:10096000F16901E01B4E7168C0F3034583B200F4E6
:100970004016B6F5401F08D121F07061154E76681B
:1009800026F07066134F7E6012E000F48016B6F514
:10099000801F06D1032606FA05F4A14341F07061D9
:1009A00006E0460D360103FA06F6B14341F07061E8
:1009B00022B1460D360103FA06F6314300F0004637
:1009C000B6F1004F02D1034EF16101E0014E7160BA
:1009D000F0BD0000000001400246002093680B407B
:1009E0000BB1012000E000207047416170470161B8
:1009F0007047C160704700BFFEE7000008B50121E5
:100A0000042000F001FE0F20ADF8000003208DF857
:100A1000020010208DF8030069460B48FFF708FF1D
:100A20000F210948FFF7E3FFF020ADF80000482050
:100A30008DF8030069460448FFF7FAFEF0210248EA
:100A4000FFF7D5FF08BD00000008014010B50446BF
:100A5000FE21D548FFF7CDFF1021D348FFF7BCFF9B
:100A600078B12021D048FFF7B7FF50B14021CE48E0
:100A7000FFF7B2FF28B18021CB48FFF7ADFF002878
:100A800050D10A2001F0A8F91021C748FFF7A4FFB0
:100A900058B90120C5490870207000BF1021C24814
:100AA000FFF79AFF0028F9D03CE02021BE48FFF76D
:100AB00093FF60B90120BD4908700220207000BF7B
:100AC0002021B948FFF788FF0028F9D02AE040210B
:100AD000B548FFF781FF60B90120B44908700320D1
:100AE000207000BF4021B048FFF776FF0028F9D002
:100AF00018E08021AC48FFF76FFF60B90120AB49D7
:100B000008700420207000BF8021A748FFF764FF11
:100B10000028F9D006E00020A4490870FF21A2486F
:100B2000FFF767FFFD21A048FFF763FF10219E48F4
:100B3000FFF752FF78B120219B48FFF74DFF50B1DE
:100B400040219948FFF748FF28B180219648FFF7D8
:100B500043FF002851D10A2001F03EF910219248AC
:100B6000FFF73AFF60B90120904908700520207016
:100B700000BF10218C48FFF72FFF0028F9D03CE080
:100B800020218948FFF728FF60B9012087490870B4
:100B90000620207000BF20218348FFF71DFF00289A
:100BA000F9D02AE040218048FFF716FF60B9012004
:100BB0007E4908700720207000BF40217A48FFF767
:100BC0000BFF0028F9D018E080217748FFF704FFD9
:100BD00060B90120754908700820207000BF80218D
:100BE0007148FFF7F9FE0028F9D006E000206F49B0
:100BF0000870FF216C48FFF7FCFEFB216A48FFF7F5
:100C0000F8FE10216848FFF7E7FE78B1202166481A
:100C1000FFF7E2FE50B140216348FFF7DDFE28B147
:100C200080216148FFF7D8FE002851D10A2001F049
:100C3000D3F810215C48FFF7CFFE60B901205B4973
:100C400008700920207000BF10215748FFF7C4FE2C
:100C50000028F9D03CE020215348FFF7BDFE60B9E1
:100C60000120524908700A20207000BF20214E4800
:100C7000FFF7B2FE0028F9D02AE040214A48FFF7EA
:100C8000ABFE60B90120494908700B20207000BFFD
:100C900040214548FFF7A0FE0028F9D018E0802148
:100CA0004148FFF799FE60B90120404908700C20C7
:100CB000207000BF80213C48FFF78EFE0028F9D04D
:100CC00006E0002039490870FF213748FFF791FE00
:100CD000F7213548FFF78DFE10213348FFF77CFEE2
:100CE00070B120213048FFF777FE48B140212E48EF
:100CF000FFF772FE20B180212B48FFF76DFE28BB65
:100D00000A2001F069F810212748FFF765FE60B955
:100D10000120264908700D20207000BF10212248B4
:100D2000FFF75AFE0028F9D03CE020211E48FFF7CB
:100D300053FE60B901201D4908700E20207000BFCD
:100D400020211948FFF748FE0028F9D02AE0402169
:100D50001548FFF741FE60B90120144908700F20C3
:100D6000207000BF40211048FFF736FE0028F9D060
:100D700018E080210C48FFF72FFE60B901200B49D5
:100D800008701020207000BF80210748FFF724FE64
:100D90000028F9D006E0002004490870FF2102482D
:100DA000FFF727FE10BD00000008014021000020D1
:100DB00010B52A488089401E83B228484089401EC9
:100DC00082B20021084600F097F9254800884FF6C6
:100DD000BF710840224908800846008840F400603E
:100DE00008800846008840F04000088040201D49E7
:100DF000086000240BE0194880881949888100BFE9
:100E00001748008900F002000028F9D0641C13483C
:100E10004089124989894843A042ECD800BF104854
:100E2000008900F080000028F9D140200D49091FF9
:100E300008600B4800884FF6BF71084008490880D9
:100E4000084600884FF2FF710840054908800846AF
:100E5000008840F04000088010BD000044090020D8
:100E600000300140140C014008B50DE00021009154
:100E700004E0BDF80010491C89B20091BDF80010D3
:100E800041F288329142F4DB011EA0F10100EDD164
:100E900008BD00002DE9F05F07468846144600258E
:100EA000A9460026AA46A4F12000C4B240202D493C
:100EB000086000BF34E02C48006800682A490968CF
:100EC000098904FB015110F801B04FF0000921E03D
:100ED0000BF0010028B125480088254921F81600AB
:100EE00004E022488088224921F816004FEA6B0B63
:100EF000701C86B20AF101001FFA80FA1A480068D5
:100F00008088504502D14FF0000A06E009F1010047
:100F10001FFA80F9B9F1080FDADB00BF681C85B24F
:100F2000114800680089A842C5DC0F480068C088E5
:100F30004044401E83B20C48006880883844401EFC
:100F400082B24146384600F0D7F8074800688088EA
:100F5000054A1268D288504381B2054800F0D8F99A
:100F6000BDE8F09F140C014024000020440900203B
:100F7000440100202DE9FF4106460F4614461D4658
:100F80000B48007A30B923462A460AA16846FFF783
:100F900043F905E023462A4608A16846FFF73CF9D5
:100FA0006A463946304600F00BF8BDE8FF81000084
:100FB0004409002025302E2A64000000252A640000
:100FC00070B505460E4614460AE02278314628469A
:100FD000FFF760FF064800688088284485B2641CDB
:100FE00004484089A84202DD20780028EDD170BD78
:100FF000240000204409002008B50121082000F049
:1010000003FB0121084600F0FFFA01212148FFF708
:101010009BFC01210846FFF797FC18208DF8030080
:1010200003208DF802000820ADF8000069461A4838
:10103000FFF7FEFB2020ADF8000069461648FFF7D9
:10104000F7FB10208DF8030003208DF802004020EC
:10105000ADF8000069461048FFF7EAFB8020ADF8C4
:10106000000069460C48FFF7E3FB4FF48070ADF8D1
:10107000000069460848FFF7DBFB80210648FFF7C0
:10108000B6FC402004491031086081000248FFF797
:10109000ACFC08BD00023000000C014000B585B07A
:1010A0000121080300F0B0FA4FF44040ADF8000011
:1010B0004FF48270ADF802000020ADF80400ADF8E6
:1010C0000600ADF808004FF40070ADF80A000820E3
:1010D000ADF80C000020ADF80E000720ADF81000B0
:1010E0006946044800F0ACFA0121024800F09CFA7D
:1010F00005B000BD003001402DE9F04104460D4629
:1011000016461F464020184908602A2000F04AF978
:101110001649897B214488B200F06AF91349897B1A
:10112000314488B200F064F92B2000F03BF90F49FC
:10113000C97B294488B200F05BF90C49C97B39446A
:1011400088B200F055F92C2000F02CF900BF0848B7
:10115000008900F080000028F9D140200249091FD1
:101160000860BDE8F0810000140C01404409002033
:101170000030014001490860704700002400002051
:1011800030B500230021002200F47804230A00F483
:101190007C446109C0F3C40243EA01041443014DD5
:1011A0006C6030BD4409002030B5002300210022CE
:1011B00000F47804230A00F47C446109C0F3C402FB
:1011C00043EA01041443014D2C6030BD4409002062
:1011D00010B504462D48447240202D49086084B95A
:1011E000362000F0DFF8702000F018F914202749AD
:1011F00088730020C8734FF48C704881F020888178
:1012000037E0022C10D1362000F0CCF8002000F09E
:1012100005F900201D4988731420C873F020488107
:101220004FF48C70888124E0012C10D1362000F01E
:10123000B9F8A02000F0F2F81420144988730020B7
:10124000C8734FF48C704881F020888111E0032C22
:101250000FD1362000F0A6F8C02000F0DFF8002003
:101260000A4988731420C873F02048814FF48C70A9
:10127000888100BF0748008900F080000028F9D16C
:1012800040200349091F086010BD000044090020E8
:10129000140C014000300140134908608188142972
:1012A00012D004DC0C2907D0102919D108E0182924
:1012B0000ED0202914D10FE00C490D4A116010E026
:1012C0000C490B4A11600CE00B49094A116008E017
:1012D0000A49074A116004E00949054A116000E023
:1012E00000BF00BF704700002800002098000020C9
:1012F000240000208C0000208000002074000020CA
:10130000680000200149087270470000440900206D
:1013100010B50246214B1B884FF6BF7423401F4C6B
:10132000238023461B8843F40063238023461B88C5
:1013300043F0400323804023194C236000200BE03E
:1013400032F81030154CA38100BF144B1B8903F0F9
:101350000203002BF9D0401C8842F1D300BF0F4B91
:101360001B8903F08003002BF9D140230C4C241F70
:1013700023600A4B1B884FF6BF742340074C238021
:1013800023461B884FF2FF742340044C23802346DE
:101390001B8843F04003238010BD00000030014053
:1013A000140C014010B5044600BF0F48008900F03E
:1013B00080000028F9D180210C48FFF716FB0A486D
:1013C000848100BF0848008900F002000028F9D09D
:1013D00000BF0548008900F080000028F9D1802175
:1013E0000248FFF704FB10BD00300140000C014033
:1013F0000112094A918100BF0749098901F00201E0
:101400000029F9D00449888100BF0349098901F006
:1014100002010029F9D07047003001400449888159
:1014200000BF0349098901F002010029F9D0704782
:101430000030014008B501211C2000F0E5F8102023
:101440008DF803004002ADF8000003208DF8020083
:1014500069461148FFF7ECF910208DF803000220CF
:10146000ADF8000003208DF8020069460B48FFF735
:10147000DFF904208DF803008001ADF80000694613
:101480000748FFF7D5F90120064908600020064902
:10149000C1F8840108BD000000100140000C0140AB
:1014A00000080140B4012242008021420B4800782C
:1014B00010B1012810D108E0002009490860074850
:1014C0000078401C0549087006E0012004490860C6
:1014D00000200249087000BF00BF704722000020B2
:1014E000B401224200BFFEE77047000070B5002142
:1014F00000230F22C47804B3154C246804F4E0647C
:10150000C4F5E064210AC1F10403CA40447804FA36
:1015100003F184781440214309010E4C0678A1554B
:10152000047804F01F050124AC4005786D11AD006E
:1015300005F1E025C5F8004109E0047804F01F0535
:101540000124AC40044D0678761145F8264070BD64
:101550000CED00E000E400E080E100E010B504469E
:101560002146024800F0D9FA10BD000000040040F6
:101570007047000000B585B00121082000F044F854
:101580000121022000F030F80120ADF810001820F1
:101590008DF8130003208DF8120004A91048FFF7FE
:1015A00047F96020ADF800000120ADF8020064208A
:1015B000ADF806000020ADF808006946094800F0C3
:1015C00053FA0821074800F09FFA0121054800F06E
:1015D00033FA472144F61F6000F016FA05B000BD4B
:1015E000000C01400004004029B1064AD2690243C0
:1015F000044BDA6104E0034AD2698243014BDA61A9
:10160000704700000010024029B1064A9269024367
:10161000044B9A6104E0034A92698243014B9A6148
:10162000704700000010024021B1028842F04002E1
:10163000028004E002884FF6BF731A4002807047B0
:1016400010B50022028802F441520B884C882343D3
:101650008C882343CC8823430C8923434C89234320
:101660008C892343CC8923431A430280838B4FF216
:10167000FF74234083830B8A038210BD10B5FFF7EC
:10168000BBFCFFF70BFD0520FFF7EEFB40206E498A
:1016900008603620FFF786FE0020FFF7BFFE3A20E5
:1016A000FFF780FE0520FFF7B9FEB220FFF77AFEB4
:1016B0000C20FFF7B3FE0C20FFF7B0FE0020FFF771
:1016C000ADFE3320FFF7AAFE3320FFF7A7FEB720B9
:1016D000FFF768FE3520FFF7A1FEBB20FFF762FE93
:1016E0001920FFF79BFEC020FFF75CFE2C20FFF7C0
:1016F00095FEC220FFF756FE0120FFF78FFEC320A4
:10170000FFF750FE1220FFF789FEC420FFF74AFEC4
:101710002020FFF783FEC620FFF744FE0F20FFF7CF
:101720007DFED020FFF73EFEA420FFF777FEA1202C
:10173000FFF774FEE020FFF735FED020FFF76EFEC6
:101740000420FFF76BFE0D20FFF768FE1120FFF766
:1017500065FE1320FFF762FE2B20FFF75FFE3F20A0
:10176000FFF75CFE5420FFF759FE4C20FFF756FEB2
:101770001820FFF753FE0D20FFF750FE0B20FFF758
:101780004DFE1F20FFF74AFE2320FFF747FEE12012
:10179000FFF708FED020FFF741FE0420FFF73EFED2
:1017A0000C20FFF73BFE1120FFF738FE1320FFF758
:1017B00035FE2C20FFF732FE3F20FFF72FFE44209E
:1017C000FFF72CFE5120FFF729FE2F20FFF726FE02
:1017D0001F20FFF723FE1F20FFF720FE2020FFF72A
:1017E0001DFE2320FFF71AFE2120FFF7DBFD11204D
:1017F000FFF7D8FD7820FFF737FB2920FFF7D2FD50
:1018000000BF1248008900F080000028F9D1402074
:101810000D49091F08600220FFF7DAFC0020FFF7DE
:10182000AFFC6FF07F40FFF7BFFCFFF7C1FA08483D
:10183000FFF7A0FC0020FFF765FD4FF48071024820
:101840001438FFF7D4F810BD140C014000300140EB
:1018500074000020704700002DE9F04104460A4959
:10186000204600F04BFD8046084900F029FE07465F
:10187000074900F0E1FC064600F002FE85B228466A
:10188000FFF76CFEBDE8F081000034430000FA442D
:101890000000FA4310B500F001F810BD0CB50020AF
:1018A000019000903348006840F48030314908606E
:1018B00000BF3048006800F4003000900198401CE0
:1018C0000190009818B90198B0F5A06FF1D129489E
:1018D000006800F4003010B10120009001E0002009
:1018E00000900098012843D12348006840F0100080
:1018F000214908600846006820F003000860084697
:10190000006840F0020008601A48406819494860C1
:101910000846406848600846406840F48060486077
:101920000846406820F47C1048600846406840F44F
:10193000E81048600846006840F08070086000BF0A
:101940000C48006800F000700028F9D00948406891
:1019500020F00300074948600846406840F0020054
:10196000486000BF0348406800F00C000828F9D127
:101970000CBD00000010024000200240042808D1E5
:101980004FF0E021096941F004014FF0E0221161BC
:1019900007E04FF0E021096921F004014FF0E02257
:1019A000116170477047000010B51348006840F09F
:1019B00001001149086008464068104908400E4976
:1019C0004860084600680E4908400B490860084610
:1019D000006820F4802008600846406820F4FE007B
:1019E00048604FF41F008860FFF754FF4FF000601D
:1019F0000449086010BD0000001002400000FFF81C
:101A0000FFFFF6FE08ED00E03EB505460C4600205F
:101A1000ADF80600ADF80200ADF80450ADF8004096
:101A20006946044800F07CF80121024800F010F8F3
:101A30003EBD00000004004021B1028842F0800257
:101A4000028004E002884FF67F731A4002807047DC
:101A500021B1028842F00102028004E002884FF6C0
:101A6000FE731A400280704770B5002400220023E4
:101A7000058C4FF6FF6635400584028C8388848B85
:101A80004FF68F752C404FF6FC752C400D882C437B
:101A90004FF6FF552A400D894FF6FF7606EA0525D9
:101AA0002A434D8806EA05252A43154DA84202D04F
:101AB000144DA8421DD14FF2FF752A404D894FF6B3
:101AC000FF7606EA05252A434FF6FF352A408D8822
:101AD00006EA05252A434EF6FF752B404DF6FF75A5
:101AE0002B408D8906EA05152B43CD8906EA05159D
:101AF0002B4383808483CD888587028470BD00005A
:101B0000002C0140003401400A460021818B4FF631
:101B1000F773194011438183704781877047000034
:101B2000002202881D4B98420ED01D4B98420BD0CC
:101B3000B0F1804F08D01B4B984205D01A4B984209
:101B400002D01A4B984204D14FF68F731A404B883B
:101B50001A43174B984207D0164B984204D04FF6C1
:101B6000FF431A40CB881A4302808B8883850B88F9
:101B700003850A4B98420BD0094B984208D00E4B74
:101B8000984205D00D4B984202D00D4B984201D19E
:101B90000B7A03860123838270470000002C0140EA
:101BA000003401400004004000080040000C0040E8
:101BB000001000400014004000400140004401407B
:101BC0000048014000BFFEE730380A2801D201205A
:101BD00070470020704700BF704730B503460C4681
:101BE000002108E053F8210054F82150A84201D008
:101BF000002030BD491C9142F4DB0120F9E70000D0
:101C000010B510203B490870FFF7D2F83AA2142112
:101C10001920FFF7D5F93CA22D211920FFF7D0F9A3
:101C20003CA2C8210A20FFF7CBF9022000F0FAF805
:101C30000020304908703C4908700D223B493C485F
:101C4000FFF7CBFF002827D0FFF7B2F839A2142105
:101C50003220FFF7B5F92FA2C8210A20FFF7B0F90B
:101C6000032000F0DFF8FFF7A3F80D2235492F48D5
:101C7000FFF7B3FF28B134A22D210C20FFF7A0F904
:101C80001CE036A22D211920FFF79AF934222D49A4
:101C90002748FEF7FDFB11E0FFF78AF834A2282160
:101CA0001620FFF78DF900203649086001203649DB
:101CB000C1F884014FF47A7000F08EF834211B488B
:101CC000FEF718FC34211F48FEF714FC10200949C8
:101CD000087001201449087040F2DC5000F07CF8D4
:101CE00000202A49086001202949C1F8B401FFF702
:101CF0005FF810BD14000020456E7465722070728C
:101D00006576696F7573000070617373776F7264C5
:101D1000000000005072657373202320746F2063ED
:101D20006F6E6669726D000021000020DC000020EB
:101D3000A80000206E65772070617373776F7264FE
:101D400000000000100100204475706C696361742C
:101D5000652070617373776F7264000050617373F4
:101D6000776F7264207570646174656400000000B0
:101D700057726F6E672070617373776F7264212181
:101D800021000000B40122420080214284812142CE
:101D90000000224210B56FF00400FFF7EFFD0A4883
:101DA00000680A49B0FBF1F009490870084600785C
:101DB00000EB4001C1EBC0104FF6FF7101EAC0001B
:101DC0000449088010BD00000000002000127A00C5
:101DD000A4000020A60000200146114A12884A43B0
:101DE0004FF0E0235A6100229A611A46126942F0CC
:101DF00001021A6100BF4FF0E022106900F00102F9
:101E00001AB100F48032002AF5D04FF0E0221269B6
:101E100022F001024FF0E0231A6100229A6170471C
:101E2000A600002070B50546002449E02748FEF7CB
:101E30000DFE264800780F2800D142E00D2C39DA3B
:101E400023480078012835D1204800780C2831D06B
:101E50001E48007810282DD01C4800780F2829D063
:101E6000012D04D0022D08D0032D12D10BE017480C
:101E70000078184941F824000BE01448007816490E
:101E800041F8240005E011480078144941F8240085
:101E900000BF00BF12A2502112480078FFF790F84F
:101EA000601CC4B20F4800780F300E490870002043
:101EB0000749087001232246FA211420FFF75AF837
:101EC000B4E700BF1B200749087070BD1400002054
:101ED00021000020A8000020DC00002010010020CC
:101EE0002A00000015000020FFF754FFFFF7A2FAB8
:101EF000FEF784FDFFF7C2FBFFF73CFBFEF700FC9B
:101F00000220FFF765F93948FFF7C6F90020FFF70F
:101F10004BF93748FFF734F9FEF74AFF35A2142191
:101F20002820FFF74DF837A2C8210A20FFF748F80C
:101F30000020FFF791FC58E03748006808B900F02E
:101F400055F93648FEF782FD344800780C2804D055
:101F50000F283CD0102847D11CE031A228210F20A7
:101F6000FFF72EF833A246210F20FFF729F825A20C
:101F7000C8210A20FFF724F833A28C219620FFF70E
:101F80001FF833A2AA219620FFF71AF80120324940
:101F9000086029E031A228210F20FFF711F834A2B0
:101FA00046210F20FFF70CF816A2C8210A20FFF7E0
:101FB00007F825A28C219620FFF702F824A2AA2177
:101FC0009620FEF7FDFF0220234908600CE022481E
:101FD0000068012801D100F055F81F480068022868
:101FE00001D1FFF70DFE00BF00BFA5E750000020A4
:101FF000FFFF80007075742070617373776F726477
:10200000000000005072657373202320746F2063FA
:102010006F6E6669726D00001800002014000020C9
:102020002D3E20456E7465722070617373776F72F8
:10203000640000002020204368616E6765207061A5
:102040007373776F72640000433A7570000000008C
:10205000443A646F776E00001C0000202020204569
:102060006E7465722070617373776F726400000024
:102070002D3E204368616E67652070617373776FD2
:102080007264000010B503240C203F490870FEF76D
:102090008FFE15E03DA214212320FEF791FF0220C0
:1020A000FFF7C0FEFEF784FE0020374908703B4969
:1020B00008700D223A493B48FFF78FFD00B103E05D
:1020C000201EA4F10104E5D100BF002C10DD012089
:1020D0003549087035A23C212820FEF771FF37A250
:1020E000BE211920FEF76CFF3948FFF7B5FB23E04E
:1020F0004FF47F00FFF758F836A23C212D20FEF761
:102100005FFF00203749086001203749C1F884018A
:102110004FF47A70FFF760FE4FF47A70FFF75CFEC1
:102120004FF47A70FFF758FE24A2BE211920FEF763
:1021300047FF0020FFF738F80EE01348FEF786FC53
:10214000114800780F2807D1002017490870FFF7C1
:1021500083FBFFF7ABF903E00B4800780028ECD0D5
:1021600000BF34210E48FEF7C5F90C20064908705F
:1021700001200A4908701B49086000201A49C1F86B
:102180008401FEF715FE10BD14000020456E746535
:10219000722070617373776F7264000021000020F9
:1021A000DC000020A80000202000002041636365BF
:1021B0007373204772616E746564000050726573BA
:1021C00073202320746F20636C6F73650000000020
:1021D0000000B4424163636573732044656E6965B2
:1021E00064000000B40122420080214210B50120A9
:1021F000FFF718FE0BA296211420FEF7E1FE0C203B
:102200000949087001200949087040F2EE20FFF7E3
:10221000E3FDFEF7CDFD01200549086000200549DA
:10222000087010BD4F4B000014000020210000205A
:10223000180000202000002090EA010F48BF81F024
:10224000004100F11082421A3CBF801A89184FEAFF
:10225000D0524FF07F4C1CEA410FA2EBD15318BF74
:102260009CEA026F00F03B804FF0004C4CEA0020EB
:102270004CEA012121FA03FC10EB0C0C1ED202F1F6
:10228000FF325FEA1C2040EBC25038BF70471CF0A1
:102290007F0F4FEA400C18BFBCF17F4F38BF70472B
:1022A000C3F12003994008BF20F00100BCF17F4F2B
:1022B00038BF7047A0F1C04000F0C9B94FEA3C00F8
:1022C000000A40EBC25028BF1CF0FF0F4FEA400C41
:1022D000E6D018BFBCF17F4F38BF7047EAE79CEAF1
:1022E000026F05D010EA5C0F08BF00F00040704795
:1022F00010B500F066F900BF64FBBE3E4FF47F0CE2
:102300001CEAD0121EBF1CEAD11392EA0C0F93EA0A
:102310000C0F00F0858090EA010F48BF42F48072F4
:1023200040F4000C41F400002CF07F4120F07F408D
:1023300000B58142A2EB03020FF2081CACEB504E39
:10234000C0F100009EF800E04FEA4E0E00FB0EFCCC
:1023500038BF49004FEA2C1C02F5FA020CFB0EF3C1
:102360004FEACE1E4FEA112C4FEAC1210EEB635EFD
:1023700042EB22420EFB0CFC4FEA1C5300FB031104
:102380004FEA112C4FEA01310EFB0CFC4FEADC4CFA
:1023900000FB0C11C14228BF09184CEB03335DF858
:1023A00004EB10EB410143EBC250B2F57C0F38BF98
:1023B000704729D512F0F00F1CBF00F1C04000F0AB
:1023C00000407047008182838485868788898B8C52
:1023D0008D8E8F919293959697999A9C9D9FA0A28E
:1023E000A3A5A7A8AAACAEB0B2B3B5B7B9BCBEC0DE
:1023F000C2C5C7C9CCCED1D4D7D9DCDFE2E6E9EC7F
:10240000F0F3F7FAFE0000004FEA400C0CF1807C7C
:10241000BCF17E4F28BF7047B0F1C04000F017B943
:1024200090EA010F0CEAD11348BF42F48072624572
:1024300038BF634507D213F47F0F16D080EA01003E
:1024400000F00040704710B500F0BBF8097EFC3E7C
:1024500000F005B880EA010000F00040704780EA13
:10246000010000F0004000F0F2B812F47F0F04BF4A
:102470000248704780EA010000F0E9B80000C07F20
:10248000C10DD1F19E0206DB4FEA002343F0004369
:1024900023FA02F07047004207D54FEA4001B1F13C
:1024A000FE4F02D24FF00000704710B500F089F8DF
:1024B00049922480002070476FEA20007047000096
:1024C0004FF47F0C1CEAD0121EBF1CEAD11392EA13
:1024D0000C0F93EA0C0F00F0478090EA010F48BF01
:1024E00042F480724FF0004C4CEA00204CEA01218B
:1024F00002EB0302A0FB0113A2F50002002918BFA2
:1025000043F001035B0028BF4FEA330342EB224252
:102510005FEA132C4CEBC2502EBFBCEB436FB2F5FD
:102520007C0F70474FEA036CBCF1004F08BF20F0EE
:102530000100B2F57C0F38BF70470BD582F0FF0267
:1025400012F5803FC8BF704700F1C040D8BF00F00F
:102550000040704700F5000C5FEA4C0C48BF704724
:10256000B0F1C04000F073B890EA010F0CEAD1134B
:1025700048BF42F48072624538BF634504D280EAA6
:10258000010000F00040704710B500F01AF800BFDD
:102590008900013E00F007B800F009B85FEA410C7D
:1025A0005FEA1C6C08D080EA010000F050B85FEAD6
:1025B000400C5FEA1C6CF6D14FF00040A0F58000A3
:1025C00070470EF1020E2EF0030E5EF8044B24420B
:1025D00004D44FEA4102B2F17F4F11D84FEA4003D1
:1025E000B3F17F4F0CD80ED14FEAD07CB2F17F4FC0
:1025F0000CEB4C0C0CF1020C08BF4CEBD17C04E052
:102600004FF0080C01E04FEAD17C0CEB4C0324FAAC
:1026100003F404F00704B4F1040C06D20EEB840CAE
:10262000BDE810404CF0010C6047DFE80CF00708F3
:1026300002024FF00040A0F5800010BD08464200A5
:1026400018BFD2F1807288BF00F0004010BDFF219A
:1026500041EAD050C005704790EA010F48BF81F0B1
:1026600000413FF5F0AD421A04D882F00042A0EBE1
:10267000020011444FEAD0524FF07F4C1CEA410F48
:10268000A2EBD15318BF9CEA026F4AD04FF0004C26
:102690004CEA00204CEA012121FA03FCB0EB0C0CBF
:1026A0000FD412F0FE0F36D05FEA4C001DD5001299
:1026B00040EBC25038BF70471CF03F0F18BF704747
:1026C0000BE0A2F101025FEA1C2040EBC25038BFD0
:1026D00070471CF07F0F18BF7047C3F1200399406B
:1026E00014BF401E20F00100704780084FEA1223FB
:1026F00008BF7047B0FA80FCA2EB0C02CCF1280CAA
:1027000060FA0CF093EA122F04BF00EBC25070473E
:102710004FEAC3707047130A5FEADC1008BF7047C6
:10272000F6E79CEA026F04D010EA5C0F08BF0020B5
:10273000704710B5FFF745FF40DFF63E81F00040DF
:102740007047000000000000FC070400FC031402B6
:10275000A40166009E0700000000B7B4000000005E
:102760000000000000000000000000000000000069
:102770000000000000006000FE07FA031601FF0FD2
:10278000FC030402FC0300000000BFCD00000000B9
:102790000000000000000000000000000000000039
:1027A00000000000000000017F0184013F014C0196
:1027B000F6070501040100000000BFC6000000008C
:1027C0000000000000000000000000000000000009
:1027D00000000000000000008400FF078400FC03EC
:1027E0002703C400370700000000BCBC0000000045
:1027F00000000000000000000000000000000000D9
:1028000000000000000000000000000000000000C8
:1028100000000000000000000000000000000000B8
:1028200000000000000000000000000000000000A8
:102830000000000000000000000000000000000098
:102840000000000000000000000000000000000088
:102850000000000000000000000000000000000078
:102860000000000000000000000000000000000068
:102870000000000000000000000000000000000058
:102880000000000000000000000000000000000048
:102890000000000000000000000000000000000038
:1028A0000000000000000000000000000000000028
:1028B0000000000000000000000000000000000018
:1028C0000000000000000000000000000000000008
:1028D00000000000000000000000000000000000F8
:1028E00000000000000000000000000000000000E8
:1028F00000000000000000000000000000000000D8
:1029000000000000000000000000000000000000C7
:1029100000000000000000000000000000000000B7
:1029200000000000000000000000FC1F0400FC0F7D
:10293000140824046402860162071D3800000000A8
:102940000000B7B40000000000000000000000001C
:102950000000000000000000000000000000000077
:1029600000000000000000000000C000FE1FF20791
:102970001802E6011F3EF8070804F80700000000EF
:102980000000BFCD000000000000000000000000BB
:102990000000000000000000000000000000000037
:1029A000000000000000000000000008BE09080B45
:1029B000FE089809EC3F0A08080808080000000013
:1029C0000000BFC600000000000000000000000082
:1029D00000000000000000000000000000000000F7
:1029E000000000000000000000000402FF3F04029D
:1029F000E41F4C10870804078407773800000000A4
:102A00000000BCBC0000000000000000000000004E
:102A100000000000000000000000000000000000B6
:102A200000000000000000000000000000000000A6
:102A30000000000000000000000000000000000096
:102A40000000000000000000000000000000000086
:102A50000000000000000000000000000000000076
:102A60000000000000000000000000000000000066
:102A70000000000000000000000000000000000056
:102A80000000000000000000000000000000000046
:102A90000000000000000000000000000000000036
:102AA0000000000000000000000000000000000026
:102AB0000000000000000000000000000000000016
:102AC0000000000000000000000000000000000006
:102AD00000000000000000000000000000000000F6
:102AE00000000000000000000000000000000000E6
:102AF00000000000000000000000000000000000D6
:102B000000000000000000000000000000000000C5
:102B100000000000000000000000000000000000B5
:102B200000000000000000000000000000000000A5
:102B30000000000000000000000000000000000095
:102B40000000000000000000000000000000000085
:102B50000000000000000000000000000000000075
:102B60000000000000000000000000000000000065
:102B70000000000000000000000000000000000055
:102B80000000000000000000000000000000000045
:102B90000000000000000000000000000000000035
:102BA0000000000000000000000000000000000025
:102BB0000000E003F81F00080000080000F8FF0113
:102BC00048800188C000086100083600041C0084A9
:102BD000E300720007000000000000000000B7B42E
:102BE00000000000000000000000000000000000E5
:102BF00000000000000000000000000000000000D5
:102C000000000000000000000000000000000000C4
:102C100000000000000000000000000000000000B4
:102C2000000000000000000000000100000300FEA2
:102C3000FF01620001F87F007E3000800F007FF00E
:102C400003F87F00084000F87F0008400000000003
:102C5000000000000000BFCD0000000000000000E8
:102C60000000000000000000000000000000000064
:102C70000000000000000000000000000000000054
:102C80000000000000000000000000000000000044
:102C90000000000000000000000000000000000034
:102CA00000E040001E4600104C00105800FE43009B
:102CB000104600784C00DC400014F003924F0010E6
:102CC0004000104000000000000000000000BFC6EF
:102CD00000000000000000000000000000000000F4
:102CE00000000000000000000000000000000000E4
:102CF00000000000000000000000000000000000D4
:102D000000000000000000000000000000000000C3
:102D1000000000000000000000081000081000FF84
:102D2000FF03081000081000E8FF011C02010B86D9
:102D300000086C00081800086F00EF800300000016
:102D4000000000000000BCBC00000000000000000B
:102D50000000000000000000000000000000000073
:102D60000000000000000000000000000000000063
:102D70000000000000000000000000000000000053
:102D80000000000000000000000000000000000043
:102D900000FCFF0300000000000000000000000035
:102DA000F8FF01000000000000000000000000002B
:102DB0000000FEFF07000000000000000000C8FD4A
:102DC00020000000000000000000000000000000E3
:102DD00000000000000000000000000000000000F3
:102DE00000000000000000000000000000000000E3
:102DF00000000000000000000000000000000000D3
:102E0000000000000000000000102000FEFF011084
:102E10002000F03F00102000F03F00102000FFFFD6
:102E200003102100FCFF00030103FEFF010000006E
:102E3000000000000000BBF92000000000000000BE
:102E40000000000000000000000000000000000082
:102E50000000000000000000000000000000000072
:102E60000000000000000000000000000000000062
:102E70000000000000000000000000000000000052
:102E800000400000F01F00181800040C00FFFF00B5
:102E9000048200048200FCFF00048000040000049F
:102EA0000002F8FF01000000000000000000C9ABB4
:102EB00020000000000000000000000000000000F2
:102EC0000000000000000000000000000000000002
:102ED00000000000000000000000000000000000F2
:102EE00000000000000000000000000000000000E2
:102EF00000000000000000000000000000000000D2
:102F000000000000000000000000000000000000C1
:102F100000000000000000000000000000000000B1
:102F200000000000000000000000000000000000A1
:102F30000000000000000000000000000000000091
:102F40000000000000000000000000000000000081
:102F50000000000000000000000000000000000071
:102F60000000000000000000000000000000000061
:102F70000000000000000000000000000000000051
:102F80000000000000000000000000000000000041
:102F90000000000000000000000000000000000031
:102FA0000000000000000000000000000000000021
:102FB0000000000000000000000000000000000011
:102FC0000000000000000000000000000000000001
:102FD00000000000000000000000000000000000F1
:102FE00000000000000000000000000000000000E1
:102FF00000000000000000000000000000000000D1
:1030000000000000000000000000000000000000C0
:1030100000000000000000000000000000000000B0
:1030200000000000000000000000000000000000A0
:103030000000000000000000000000000000000090
:103040000000000000000000000000000000000080
:103050000000000000000000000000000000000070
:103060007FF8FF00180000180000180000F8FF3F6C
:1030700098013098031818030818060C180C060855
:1030800018030CF0000CF001061C0786033C7300CB
:10309000E0000000000000000000B7B400000000E5
:1030A0000000000000000000000000000000000020
:1030B0000000000000000000000000000000000010
:1030C0000000000000000000000000000000000000
:1030D00000000000000000000000000000000000F0
:1030E00000000000000000000000000000000010D0
:1030F00000007000FCFFFF0C07C08C03C0C0FF1F66
:10310000F0030E1C8E03007800C0C7073F00F8E0F4
:10311000FF1F600018600018600018E0FF1F6000CB
:1031200018000000000000000000BFCD00000000FB
:10313000000000000000000000000000000000008F
:10314000000000000000000000000000000000007F
:10315000000000000000000000000000000000006F
:10316000000000000000000000000000000000005F
:10317000000000000000000000000000000000004F
:10318000188007187E301860601860801960001B76
:10319000FE0718601818F0711870C3186806186CCC
:1031A00000FF66FE186200186000186000186000DA
:1031B00018000000000000000000BFC60000000072
:1031C00000000000000000000000000000000000FF
:1031D00000000000000000000000000000000000EF
:1031E00000000000000000000000000000000000DF
:1031F00000000000000000000000000000000000CF
:10320000000000000000000000000000000030008E
:103210000330000330000330FCFFFF0103300003E4
:1032200030000330FE7FF019603F38303030183006
:10323000600C30C00630800330E00E3038781F0755
:10324000C0000000000000000000BCBC0000000046
:10325000000000000000000000000000000000006E
:10326000000000000000000000000000000000005E
:10327000000000000000000000000000000000004E
:10328000000000000000000000000000000000003E
:10329000000000000000000000000000000000002E
:1032A000C0F8FFC018C0CC18C0CCF8FFCC18C0CCF8
:1032B000180CCC180CCCD8FFCCD8CCCCD8CCCCD8D3
:1032C000CCCCCCCCC0CCCCC004FCC0060C7E000066
:1032D00000000000000000000000CBA22000000061
:1032E00000000000000000000000000000000000DE
:1032F00000000000000000000000000000000000CE
:1033000000000000000000000000000000000000BD
:1033100000000000000000000000000000000000AD
:10332000000000000000000000000000000000009D
:1033300000F8FF7F180060180060F8FF7F1806662D
:10334000180C06180803D8FF7F180C06180C06F88E
:10335000FFFF0C0C060C0C06040606060306030110
:1033600006000000000000000000C6C120000000B0
:10337000000000000000000000000000000000004D
:10338000000000000000000000000000000000003D
:10339000000000000000000000000000000000002D
:1033A000000000000000000000000000000000001D
:1033B000000000000000000000000000000002000B
:1033C000C084FFCC9CC1CC88C1CC80D9CC83D9CC63
:1033D0008ED9CC98D9CC80D9CC80D9CC88D9CC986E
:1033E000CDCC0C0CCC0C36C00C63C0C6C1C07480F4
:1033F0007D000000000000000000B2E2200000009C
:1034000000000000000000000000000000000000BC
:1034100000000000000000000000000000000000AC
:10342000000000000000000000000000000000009C
:10343000000000000000000000000000000000008C
:10344000000000000000000000000000000002007A
:103450001B0C007318004338000380FFFF000003BB
:103460001F000318000398FF031818021818069885
:103470001806D8188678188C38F88D9C0F98080094
:10348000F0000000000000000000CAD4200000008E
:10349000000000000000000000000000000000002C
:1034A000000000000000000000000000000000001C
:1034B000000000000000000000000000000000000C
:1034C00000000000000000000000000000000000FC
:1034D0000000000000000000000000000000008369
:1034E00001FEFFFF008301F0FF3F300030F0FF3F9F
:1034F000300030F0FF3F300C30000600FEFFFFC010
:10350000300CF8FF7F67309860301860301F003053
:1035100000000000000000000000C4BB200000000C
:10352000000000000000000000000000000000009B
:10353000000000000000000000000000000000008B
:10354000000000000000000000000000000000007B
:10355000000000000000000000000000000000006B
:1035600000000000000000000000000000000063F8
:103570000080C100C0800160000330000618001CFC
:103580000E00700200C0F8FF0F00030E00030E8053
:103590000106800106C0000660000738FC030E002B
:1035A00000000000000000000000B7D6200000006E
:1035B000000000000000000000000000000000000B
:1035C00000000000000000000000000000000000FB
:1035D00000000000000000000000000000000000EB
:1035E00000000000000000000000000000000000DB
:1035F000000000000000000000000018600C3060B7
:1036000018306010FEE1FF00600082EDC1C46C6301
:103610006C6C36FE65FF306618306618306018FE38
:10362000B1FF3030183818181C1C180E0E18020282
:1036300018000000000000000000B1E620000000BB
:10364000000000000000000000000000000000007A
:10365000000000000000000000000000000000006A
:10366000000000000000000000000000000000005A
:10367000000000000000000000000000000000004A
:103680000000000000000000000000000000003802
:1036900000007000FFFFFF003800064E608C6338AA
:1036A000D03F08001C00202604F8C31CCFFFF10205
:1036B0003041003000FFFFFF0030000030000030DC
:1036C00000000000000000000000C2CA200000004E
:1036D00000000000000000000000000000000000EA
:1036E00000000000000000000000000000000000DA
:1036F00000000000000000000000000000000000CA
:1037000000000000000000000000000000000000B9
:103710000000000000000000000000308000308049
:103720000130000330FEFFFE06C03086C430401872
:10373000303030301860F00FC03EF87F300003307A
:10374000000330000330000330000330FFFF1E0091
:1037500000000000000000000000BFD820000000B2
:103760000000000000000000000000000000000059
:103770000000000000000000000000000000000049
:103780000000000000000000000000000000000039
:103790000000000000000000000000000000000029
:1037A0000000000000000000000000000000800198
:1037B000609801608C0163FC3F6386016382016352
:1037C000FFFF63800163800163FC7F638C61638C16
:1037D00061638C61608C61608C3D6080013F0000A2
:1037E00000000000000000000000D6C6200000001D
:1037F00000000000000000000000000000000000C9
:1038000000000000000000000000000000000000B8
:1038100000000000000000000000000000000000A8
:103820000000000000000000000000000000000098
:103830000000000000000000000000000000000088
:1038400000FCC77F0CC6600CC660FCC77F0CC6605E
:10385000003006FEFFFF006E0000C701F0010F1FE1
:1038600000F8FCC77F0CC6600CC660FCC77F0CC6A6
:1038700060000000000000000000C6F7200000000B
:103880000000000000000000000000000000000038
:103890000000000000000000000000000000000028
:1038A0000000000000000000000000000000000018
:1038B0000000000000000000000000000000000008
:1038C00000000000000000000000000008000018D8
:1038D00000003000FEFFFF0600C00600C0E0FF0F42
:1038E00000000700800100E000003000FFFFFF0043
:1038F0003000003000003000003000801F00000069
:1039000000000000000000000000D7D620000000EA
:1039100000000000000000000000000000000000A7
:103920000000000000000000000000000000000097
:103930000000000000000000000000000000000087
:103940000000000000000000000000000000000077
:10395000000000000000000000000020800130C0D6
:1039600000F8DFFFC8600684710C023908011000FE
:1039700060000C70000CB8FFFF3C000C36040C32E9
:103980000C0C30180C30100C30000C30000C30E0F7
:1039900007000000000000000000B7FB200000004E
:1039A0000000000000000000000000000000000017
:1039B0000000000000000000000000000000000007
:1039C00000000000000000000000000000000000F7
:1039D00000000000000000000000000000000000E7
:1039E0000000000000000000000000000000C030E7
:1039F0000060E000F0FFFF386000F6FFFF3360007A
:103A0000F0FFFF306000F0FFFF30000000300000EA
:103A10003000FEFFFF00FE018031077030380F30AC
:103A2000C0000000000000000000BCAF200000004B
:103A30000000000000000000000000000000000086
:103A40000000000000000000000000000000000076
:103A50000000000000000000000000000000000066
:103A60000000000000000000000000000000000056
:103A7000000000000000000000000000000000182E
:103A800000001800001800001800FCFF7F0C1860F0
:103A90000C18600C18600C18600C1860FCFF7F0C90
:103AA0001860001800001800001800001800001826
:103AB00000000000000000000000D6D02000000040
:103AC00000000000000000000000000000000000F6
:103AD00000000000000000000000000000000000E6
:103AE00000000000000000000000000000000000D6
:103AF00000000000000000000000000000000000C6
:103B00000000000000000000000000001C00003861
:103B100000006000FFFFFF60000C60000CC00006AA
:103B2000C0000680010300830100C700006C000094
:103B3000380000EE00C0830778003C0600E000007B
:103B400000000000000000000000CEC420000000C3
:103B50000000000000000000000000000000000065
:103B60000000000000000000000000000000000055
:103B70000000000000000000000000000000000045
:103B80000000000000000000000000000000000035
:103B90000000000000000000000000000000000025
:103BA00000F8FF3F180030180030F8FF3F180030D1
:103BB000180030F8FF3F18003004C62008C630183F
:103BC000C63830C61820C60800C600FEFFFF000039
:103BD00000000000000000000000CFD42000000022
:103BE00000000000000000000000000000000000D5
:103BF00000000000000000000000000000000000C5
:103C000000000000000000000000000000000000B4
:103C100000000000000000000000000000000000A4
:103C20000000000000000000000000000000000094
:103C300000FCFF7F0000000000000000000000000A
:103C4000FFFFFF00300020300430300C38301818EF
:103C500030300C30600630C0023080003000801FF1
:103C600000000000000000000000CABE20000000AC
:103C70000000000000000000000000000000000044
:103C80000000000000000000000000000000000034
:103C90000000000000000000000000000000000024
:103CA0000000000000000000000000000000000014
:103CB0000000000000000000000000000000000004
:103CC00000FEFFFF00300000300000300030300008
:103CD00030300030300030F07F3030003030003095
:103CE0003000303000303000303000FFFFFF000087
:103CF00000000000000000000000D5FD20000000D2
:103D000000000000000000000000000000000000B3
:103D100000000000000000000000000000000000A3
:103D20000000000000000000000000000000000093
:103D30000000000000000000000000000000000083
:103D40000000000000000000000000000000000370
:103D500000800100C0FF076000033880010C600094
:103D6000F4FF3F30003030303030303030303030E1
:103D7000303030303030F83000980300070EE0016A
:103D8000781E00C0000000000000B8BA200000004B
:103D90000000000000000000000000000000000023
:103DA0000000000000000000000000000000000013
:103DB0000000000000000000000000000000000003
:103DC00000000000000000000000000000000000F3
:103DD00000000000000000000000000000000030B3
:103DE0000000300000300000300060300630300C41
:103DF00030301C1830381830300C30600E30E0068F
:103E000030C0023080003000003000C01F000000D1
:103E100000000000000000000000D0A12000000011
:103E20000000000000000000000000000000000092
:103E30000000000000000000000000000000000082
:103E40000000000000000000000000000000000072
:103E50000000000000000000000000000000000062
:103E60000000000000000000000000000000C00092
:103E700003C60C01C48601C080FFFECF60E0C060B5
:103E8000F8E360CCFE31C39831308031FF0F1B0C5A
:103E90000C1B06060E3C070EE0031BE0C3313C760C
:103EA000E0071880000000000000CAFD20000000AC
:103EB0000000000000000000000000000000000002
:103EC00000000000000000000000000000000000F2
:103ED00000000000000000000000000000000000E2
:103EE00000000000000000000000000000000000D2
:103EF0000000000000000000000000000000300092
:103F00000330000330FEFF300003300003FFFD7F6D
:103F1000300C6030FC7F300C6030FC7F300C60B0C7
:103F2000FD7F780C6007FFFF00601C001CF0800321
:103F300000000000000000000000CCEE20000000A7
:103F40000000000000000000000000000000000071
:103F50000000000000000000000000000000000061
:103F60000000000000000000000000000000000051
:103F70000000000000000000000000000000000041
:103F80000000000000000000000000000000000829
:103F900000001800003800FFFFFF000E00808301C2
:103FA000C0000770000CFCFF3F00C32000C300806E
:103FB000C10080C1C0E0C0C038C0C007807F000021
:103FC00000000000000000000000B3E4200000003A
:103FD00000000000000000000000000000000000E1
:103FE00000000000000000000000000000000000D1
:103FF00000000000000000000000000000000000C1
:1040000000000000000000000000000000000000B0
:104010000000000000000000000000000000003868
:1040200000007000FEFFFF0600C00686C3C0011E30
:104030003800700600C0000000F8FF3F00180000C4
:104040001800001800001800001800FEFFFF000014
:1040500000000000000000000000BFD520000000AC
:104060000000000000000000000000000000000050
:104070000000000000000000000000000000000040
:104080000000000000000000000000000000000030
:104090000000000000000000000000000000000020
:1040A0000000000000000000000000000000306080
:1040B0000030300030F07F307870FF5B3830CC0C4F
:1040C000F88007B8C10F3C7A78360EC033F87F31DC
:1040D000186030186030186030186030F87F301881
:1040E00060000000000000000000B8F120000000A7
:1040F00000000000000000000000000000000000C0
:1041000000000000000000000000000000000000AF
:10411000000000000000000000000000000000009F
:10412000000000000000000000000000000000008F
:10413000000000000000000000000000000000007F
:10414000000000000000000000000000000000006F
:10415000000000000000000000000000000000005F
:10416000000000000000000000000000000000004F
:10417000000000000000000000000000000000003F
:10418000000000000000000000000000000000002F
:10419000000000000000000000000000000000001F
:1041A000000000000000000000000000000000000F
:1041B00000000000000000000000000000000000FF
:1041C00000000000000000000000000000000000EF
:1041D00000000000000000000000000000000000DF
:1041E00000000000000000000000000000000000CF
:1041F00000000000000000000000000000000000BF
:1042000000000000000000000000000000000000AE
:10421000000000000000000000000000000000009E
:10422000000000000000000000000000000000008E
:10423000000000000000000000000000000000007E
:10424000000000000000000000000000000000006E
:10425000000000000000000000000000000000005E
:10426000000000000000000000000000000000004E
:10427000000000000000000000000000000000003E
:10428000000000000000000000000000000000002E
:10429000000000000000000000000000000000001E
:1042A000000000000000000000000000000000000E
:1042B00000000000C03FE0FFFF7FE0FF3F00600024
:1042C0000000600000006000000060000000E0FFEF
:1042D000FF3FE0FFFF3F600C0038601C001C6038AF
:1042E000000E6030000E60E0000760C0C103708007
:1042F000E3013000FF0030003C003800FF001CE00C
:10430000E7031CFE803FCE3F00FC840300C000009A
:1043100000000000000000000000B7B40000000032
:10432000000000000000000000000000000000008D
:10433000000000000000000000000000000000007D
:10434000000000000000000000000000000000006D
:10435000000000000000000000000000000000005D
:10436000000000000000000000000000000000004D
:10437000000000000000000000000000000000003D
:10438000000000000000000000000000000000002D
:10439000000000000000000000000000000000001D
:1043A000000000000000000000000000000000808D
:1043B000000000C0030000800300FCFFFF7FFCFF43
:1043C000FF7F0C0800600C0E00600CFFFF6780FF91
:1043D000FF07E00F8003781CE00118F87C0000C0A4
:1043E0000F0000FFFF00FF1FF0FF3E0000FCC0FFBA
:1043F000FF07C0FFFF07C0000006C0000006C000A6
:104400000006C0FFFF07C0FFFF07C0000006000056
:1044100000000000000000000000BFCD0000000010
:10442000000000000000000000000000000000008C
:10443000000000000000000000000000000000007C
:10444000000000000000000000000000000000006C
:10445000000000000000000000000000000000005C
:10446000000000000000000000000000000000004C
:10447000000000000000000000000000000000003C
:10448000000000000000000000000000000000002C
:10449000000000000000000000000000000000001C
:1044A000000000000000000000000000000000000C
:1044B0000006001F0006FF3F0206FE000606C000C1
:1044C0000C06C0001806C0003006FF1F2006FF1FA4
:1044D0000006C0800006E0800306E0030706F00641
:1044E0000C06F00C0806D8180006DC10F0FFCEF021
:1044F000FFFFC7F01F06C7000006C2000006C0008D
:104500000006C0000006C0000006C0000006C00093
:1045100000060000000000000000BFC60000000010
:10452000000000000000000000000000000000008B
:10453000000000000000000000000000000000007B
:10454000000000000000000000000000000000006B
:10455000000000000000000000000000000000005B
:10456000000000000000000000000000000000004B
:10457000000000000000000000000000000000003B
:10458000000000000000000000000000000000002B
:10459000000000000000000000000000000000001B
:1045A000000000000000000000000000000000000B
:1045B00000006000C0006000C0006000C00060F04B
:1045C000FFFFFFF7FFFFFF07C0006000C0006000B3
:1045D000C0006000C00060F6FF7FE0F7FF7FFC8056
:1045E00001607F000330630003186000060C600068
:1045F0000C076000B8036000F0016000F801600083
:10460000BE0760E00F7E7FFC01F83F3800C000006D
:1046100000000000000000000000BCBC0000000022
:10462000000000000000000000000000000000008A
:10463000000000000000000000000000000000007A
:10464000000000000000000000000000000000006A
:10465000000000000000000000000000000000005A
:104CE000000000000000C003C003C003C003C003F5
:104CF000C003800380018001800180018001800168
:104D0000800180010000000000008001C003C0039A
:104D10008001000000000000000000000000C0183A
:104D2000E01CE01C700E300618038C0184000000AB
:104D30000000000000000000000000000000000073
:104D40000000000000000000000000000000000063
:104D50000000000000000000000000000000000053
:104D60000000000000002010201020102010201053
:104D7000FE7FFE7FFE7F1008100810081008100844
:104D80001008FE7FFE7FFE7F180C0804080408044C
:104D90000804000000000000000000000000000007
:104DA000000080008000C003B00C90189818981C78
:104DB000981CB800B000F000E000C0038007800F2E
:104DC000800C801C80189C189C188C188C0C9806E1
:104DD000E003800080008000000000000000000070
:104DE0000000000000001C0836082204630463026F
:104DF00063026302630163012201B61C9C364022F8
:104E00004063406320632063106310631022083600
:104E1000081C00000000000000000000000000006E
:104E2000000000000000F00098008C018C018C0153
:104E30008C018C00CC005C0038001C3E3C08320821
:104E400073086304E304C3048303834306678C3E4F
:104E5000781C0000000000000000000000001C00A2
:104E60003C003C003000300010000C000600000048
:104E70000000000000000000000000000000000032
:104E80000000000000000000000000000000000022
:104E900000000000000000000000000000000040D2
:104EA000002000100018000C00040006000200039F
:104EB0000003800180018001800180018001800168
:104EC0008001800100030003000200060004000CC2
:104ED0000018001000200040000000000000020048
:104EE0000400080018003000200060004000C000EE
:104EF000C00080018001800180018001800180016B
:104F000080018001C000C000C000600020003000AF
:104F1000180008000400020000000000000000006B
:104F20000000000000000000000000038003800378
:104F30000C631C713839600D80038003600D3839B3
:104F40001C718C618003800380030000000000005E
:104F50000000000000000000000000000000000051
:104F6000000000000000000000000000000100013F
:104F700000010001000100010001FC7F00010001AF
:104F8000000100010001000100010000000000001C
:104F90000000000000000000000000000000000011
:104FA0000000000000000000000000000000000001
:104FB00000000000000000000000000000000000F1
:104FC000000000000000000000001C003C003C004D
:104FD0003000300010000C0006000000000000004F
:104FE00000000000000000000000000000000000C1
:104FF00000000000000000000000FE7F0000000034
:1050000000000000000000000000000000000000A0
:105010000000000000000000000000000000000090
:105020000000000000000000000000000000000080
:105030000000000000000000000000000000000070
:105040000000000000000000000018003C003C00D0
:105050001800000000000000000000000000000038
:105060000040006000200030001000180008000C14
:105070000004000600020003000180018000C0005F
:1050800040006000200030001000180008000C00F4
:105090000400060002000000000000000000000004
:1050A000000000000000C0036004300C181818183D
:1050B00018100C300C300C300C300C300C300C3024
:1050C0000C300C300C30181018181818300C600404
:1050D000C00300000000000000000000000000000D
:1050E00000000000000000018001F8018001800143
:1050F00080018001800180018001800180018001A8
:105100008001800180018001800180018001C00355
:10511000F81F000000000000000000000000000078
:10512000000000000000E007101C081804300430E4
:105130000C300C30003000180018000C0006000382
:105140008001C00040002020102008200430FC1FF7
:10515000FC1F000000000000000000000000000034
:10516000000000000000E00318060C0C0C180C18DE
:105170000C1800180018000C0006C003000E0018E0
:105180000010003000300C300C300C100C18180CD3
:10519000E00300000000000000000000000000002C
:1051A000000000000000000600060007000780065F
:1051B00080064006200620061006100608060C068B
:1051C00004060206FE3F0006000600060006000672
:1051D000C03F0000000000000000000000000000D0
:1051E000000000000000F03FF03F08000800080049
:1051F000080008000800C807280C1818081000301C
:105200000030003000300C300C3004180418180C3A
:10521000E0030000000000000000000000000000AB
:1052200000000000000080076018301810181800F7
:10523000080008000C00CC076C0C1C181C100C306B
:105240000C300C300C300C30183018103018700C3A
:10525000C007000000000000000000000000000087
:10526000000000000000F83FF83F08100C08040898
:10527000040400040002000200020001000180009A
:10528000800080008000C000C000C000C000C000DE
:10529000C00000000000000000000000000000004E
:1052A000000000000000E007300C18180C300C3033
:1052B0000C301C301C107818F004E003180F0C1E82
:1052C0000C1C063806300630063006300C18180C58
:1052D000E0030000000000000000000000000000EB
:1052E000000000000000E00318040C080C18061071
:1052F000063006300630063006300E380C341836CC
:10530000F03100300018001800080C0C0C060C03DB
:10531000F00100000000000000000000000000009C
:10532000000000000000000000000000000000007D
:10533000000000008001C003C003800100000000E5
:10534000000000000000000000008001C003C00356
:1053500080010000000000000000000000000000CC
:10536000000000000000000000000000000000003D
:10537000000000000000C001C001C00100000000EA
:10538000000000000000000000000000C001C0019B
:10539000C0018001C000C00000000000000000004B
:1053A00000000000000000200010000800040002BF
:1053B00000018000400020001000080008001000DC
:1053C00020004000800000010002000400080010DE
:1053D00000200000000000000000000000000000AD
:1053E00000000000000000000000000000000000BD
:1053F00000000000FE7F0000000000000000000030
:10540000FE7F00000000000000000000000000001F
:10541000000000000000000000000000000000008C
:105420000000000000000400080010002000400000
:1054300080000001000200040008001000100008B5
:10544000000400020001800040002000100008005D
:105450000400000000000000000000000000000048
:10546000000000000000C0073018183008600C6011
:105470001C601C601C6000300018000E000300015E
:10548000000100010001000000008001C003C00312
:10549000800100000000000000000000000000008B
:1054A000000000000000C0076008301018200C2B1E
:1054B0008C4D844CC64CC64466446644664466467D
:1054C000662666266417CC0C0C400820183030186D
:1054D000C007000000000000000000000000000005
:1054E000000000000000C001C001C001C001200395
:1054F00020032003200330021006100610061004BB
:10550000F80F080C080C080C0418041804180638C6
:105510001F7C0000000000000000000000000000F0
:10552000000000000000FE07181C18181830183082
:105530001830183018301818180CF80718181830C8
:105540001820186018601860186018601830181853
:10555000FE0F00000000000000000000000000003E
:10556000000000000000C0076038103018600C40D8
:105570000C400C00060006000600060006000600AF
:105580000600060006000C400C40082018103008E9
:10559000C007000000000000000000000000000044
:1055A000000000000000FE03180E18181810183034
:1055B000183018601860186018601860186018605B
:1055C00018601860182018301830181818181806A5
:1055D000FE030000000000000000000000000000CA
:1055E000000000000000FE3F18301820184018404E
:1055F0001800180018081808180CF80F180C1808CC
:105600001808180018001800184018401820183002
:10561000FE3F00000000000000000000000000004D
:10562000000000000000FE3F183818201840184005
:105630001800180018081808180CF80F180C18088B
:10564000180818081800180018001800180018008A
:105650007E000000000000000000000000000000CC
:10566000000000000000C003300C100818180C10D7
:105670000C10040006000600060006000600067E68
:105680000618061804180C180C18081818183004F6
:10569000E003000000000000000000000000000027
:1056A0000000000000003FFC0C300C300C300C30CF
:1056B0000C300C300C300C300C30FC3F0C300C300B
:1056C0000C300C300C300C300C300C300C300C30FA
:1056D0003FFC00000000000000000000000000008F
:1056E000000000000000F81F80018001800180019F
:1056F00080018001800180018001800180018001A2
:105700008001800180018001800180018001800191
:10571000F81F000000000000000000000000000072
:10572000000000000000E07F000600060006000602
:105730000006000600060006000600060006000639
:105740000006000600060006000600060006000629
:1057500000060E060E038E01FC0000000000000093
:105760000000000000007E3E180C18041806180205
:105770001801180198009800D800B801B801180362
:10578000180318061806180C180C180C18181818F6
:105790007E7C00000000000000000000000000000F
:1057A0000000000000007E0018001800180018001B
:1057B0001800180018001800180018001800180029
:1057C0001800180018001800184018401820183049
:1057D000FE3F00000000000000000000000000008C
:1057E0000000000000000FF01C381C381C381C386A
:1057F0001C34343434343434343234326432643229
:10580000643264314431C431C431C430C430843072
:105810008FFC0000000000000000000000000000FD
:105820000000000000000FF81C201C203420342051
:1058300064206420C420C420842184210423042300
:1058400004260426042C042C0438043804300430C4
:105850001F20000000000000000000000000000009
:10586000000000000000C003300C181808100C30B5
:105870000C30062006600660066006600660066062
:105880000660066004600C300C3008101818300CEC
:10589000C003000000000000000000000000000045
:1058A000000000000000FE0F181818301860186083
:1058B000186018601860186018301818F807180079
:1058C0001800180018001800180018001800180018
:1058D0007E0000000000000000000000000000004A
:1058E000000000000000C003300C181808100C3035
:1058F0000C300660066006600660066006600660A2
:10590000066006600660E4211C331C36181E300E4B
:10591000C007004C003C0038000000000000000000
:10592000000000000000FE07181C1818183018307E
:105930001830183018301818180CF8071803180306
:10594000180618061806180C180C180C1818181831
:105950007E78000000000000000000000000000051
:10596000000000000000F013181E0C1806180610A6
:10597000061006000E003C00F800E003800F001E39
:105980000018003802300230063004300C181C0CAD
:10599000E40700000000000000000000000000001C
:1059A000000000000000FC3F8C21846182418241A4
:1059B00080018001800180018001800180018001DF
:1059C00080018001800180018001800180018001CF
:1059D000E0070000000000000000000000000000E0
:1059E0000000000000003F7C0C100C100C100C108C
:1059F0000C100C100C100C100C100C100C100C10C7
:105A00000C100C100C100C100C100C101808380492
:105A1000E0030000000000000000000000000000A3
:105A20000000000000003E78183018101810181000
:105A30003008300830083008300460046004600426
:105A40006002C002C002C002C0018001800180006B
:105A500080000000000000000000000000000000C6
:105A6000000000000000CFF386618621842104211C
:105A70000C238C238C238C138C13881348125816F8
:105A80005816580E380E300E300E300C30041004FC
:105A900010040000000000000000000000000000F2
:105AA0000000000000003E7C181018083008300488
:105AB00060046002C002C001800180018001800397
:105AC000400340062006200E100C100C1818083851
:105AD0003E7C00000000000000000000000000000C
:105AE0000000000000007E7C1C1018101808300810
:105AF0003008300460046004C002C002C0018001AC
:105B0000800180018001800180018001800180018D
:105B1000E00700000000000000000000000000009E
:105B2000000000000000F87F383018300C1804180E
:105B3000000C000600060003000380018001C00085
:105B4000C000600060003000184018600C200C3865
:105B5000FE3F000000000000000000000000000008
:105B6000C03FC000C000C000C000C000C000C000F6
:105B7000C000C000C000C000C000C000C000C00025
:105B8000C000C000C000C000C000C000C000C00015
:105B9000C000C000C03F0000000000000000000086
:105BA0000000000018001800100030002000600005
:105BB00060004000C00080008001800100010003FF
:105BC000000200060006000C000C000C0018001873
:105BD00000300030003000600000000000000000D5
:105BE000FC030003000300030003000300030003A1
:105BF000000300030003000300030003000300038D
:105C0000000300030003000300030003000300037C
:105C100000030003FC030000000000000000C003BC
:105C2000C007600410080000000000000000000031
:105C30000000000000000000000000000000000064
:105C40000000000000000000000000000000000054
:105C50000000000000000000000000000000000044
:105C60000000000000000000000000000000000034
:105C70000000000000000000000000000000000024
:105C80000000000000000000000000000000000014
:105C90000000000000000000FFFF0000000078008E
:105CA000C000000100000000000000000000000033
:105CB00000000000000000000000000000000000E4
:105CC00000000000000000000000000000000000D4
:105CD00000000000000000000000000000000000C4
:105CE00000000000000000000000000000000000B4
:105CF00000000000E007180C0C180C180C18001C11
:105D0000E01B38180C1806180618061806980C9E82
:105D1000F87100000000000000000000000000001A
:105D20000000000010001E001800180018001800E5
:105D3000180018009807581C3818383018301830D8
:105D40001830183018301830183018103818380C2F
:105D5000C807000000000000000000000000000074
:105D60000000000000000000000000000000000033
:105D700000000000C0077008301818180C180C003C
:105D80000C000C000C000C000C201820181030081F
:105D9000C00700000000000000000000000000003C
:105DA000000000000010001E001800180018001865
:105DB00000180018E01B301C181818180C180C18C4
:105DC0000C180C180C180C180C180818181C307A21
:105DD000E0090000000000000000000000000000DA
:105DE00000000000000000000000000000000000B3
:105DF00000000000C003300C101818100C300C30DC
:105E00000C30FC3F0C000C000C001820181070180F
:105E1000C0070000000000000000000000000000BB
:105E2000000000000000003E80618060C060C00093
:105E3000C000C000FC1FC000C000C000C000C00007
:105E4000C000C000C000C000C000C000C000C00052
:105E5000F80F00000000000000000000000000003B
:105E60000000000000000000000000000000000032
:105E700000000000C077306C101818181818181897
:105E80001018300CF00718001800F803F01F18382D
:105E90000C300C300C301818E00700000000000037
:105EA0000000000010001E00180018001800180064
:105EB000180018009807580C3818181818181818CF
:105EC0001818181818181818181818181818181852
:105ED0007E7E0000000000000000000000000000C6
:105EE0000000000000008001C003800100000000ED
:105EF00000000001F8018001800180018001800123
:105F00008001800180018001800180018001800189
:105F1000F81F00000000000000000000000000006A
:105F2000000000000000001C001E000C000000002B
:105F300000000008C00F000C000C000C000C000C4E
:105F4000000C000C000C000C000C000C000C000CF1
:105F5000000C000C18061802F00100000000000000
:105F60000000000010001E001800180018001800A3
:105F700018001800183E180C18041802180198018F
:105F8000D801780338031806180C180C181818389C
:105F90007E7C000000000000000000000000000007
:105FA000000000000001F8018001800180018001F3
:105FB00080018001800180018001800180018001D9
:105FC00080018001800180018001800180018001C9
:105FD000F81F0000000000000000000000000000AA
:105FE00000000000000000000000000000000000B1
:105FF00000000400F73C8E638661866186618661DD
:106000008661866186618661866186618661866158
:10601000CFF30000000000000000000000000000BE
:106020000000000000000000000000000000000070
:106030000000000090075E0C38181818181818187F
:1060400018181818181818181818181818181818D0
:106050007E7E000000000000000000000000000044
:106060000000000000000000000000000000000030
:1060700000000000C003300C1018181808300C3055
:106080000C300C300C300C300C3018181818300C48
:10609000C00300000000000000000000000000003D
:1060A00000000000000000000000000000000000F0
:1060B0000000000090075E0C3818181018301830D7
:1060C0001830183018301830183018183818780C64
:1060D00098071800180018007E000000000000005B
:1060E00000000000000000000000000000000000B0
:1060F00000000000C013301E181C18180C180C18D3
:106100000C180C180C180C180C180818181C301E39
:10611000E019001800180018007E000000000000C0
:10612000000000000000000000000000000000006F
:106130000000000060387E666061E001E000600001
:10614000600060006000600060006000600060004F
:10615000FE0700000000000000000000000000003A
